:020000040800F2
:10000000D05500200D030008072D0008BB2A00086A
:10001000052D0008630600084935000800000000AF
:100020000000000000000000000000004D02000879
:100030002109000800000000A9020008B92F0008EB
:1000400027030008270300082703000827030008E8
:1000500027030008270300082703000827030008D8
:1000600027030008270300082703000827030008C8
:100070006508000827030008270300082703000875
:1000800027030008270300082703000827030008A8
:100090002703000827030008270300082703000898
:1000A0002703000827030008270300082703000888
:1000B0002703000827030008270300082703000878
:1000C0002703000827030008270300082703000868
:1000D0002703000831350008270300083D350008D4
:1000E0002703000827030008270300082703000848
:1000F00027030008813000082703000827030008B1
:100100002703000827030008270300082703000827
:100110002703000827030008270300082703000817
:1001200027030008270300087108000827030008B8
:10013000270300082703000827030008A107000879
:10014000890700082703000895070008270300080F
:1001500027030008270300082703000827030008D7
:1001600027030008270300082703000827030008C7
:1001700027030008270300082703000800000000E9
:1001800027030008270300082703000827030008A7
:100190002703000827030008270300082703000897
:1001A00000000000000000002703000800F002F833
:1001B00000F03CF80AA090E8000C82448344AAF1C5
:1001C0000107DA4501D100F031F8AFF2090EBAE8C3
:1001D0000F0013F0010F18BFFB1A43F0010318477B
:1001E0004068000060680000103A24BF78C878C1F9
:1001F000FAD8520724BF30C830C144BF04680C602D
:10020000704700000023002400250026103A28BF74
:1002100078C1FBD8520728BF30C148BF0B60704778
:100220001FB506F01DFB1FBD10B510BD00F0E4F9B1
:100230001146FFF7F5FF04F04FF800F002FA03B49F
:10024000FFF7F2FF03BC00F005FA00002C4B196821
:100250000868B0E8F04F80F30988BFF36F8F4FF064
:10026000000080F311887047000000000848006813
:10027000006880F308884FF0000080F3148862B6AD
:1002800061B6BFF34F8FBFF36F8F00DF00BF00BFBA
:1002900008ED00E0DFF80C00016841F47001016036
:1002A000704700BF88ED00E0EFF30980BFF36F8F68
:1002B000134B1A681EF0100F08BF20ED108A20E9BA
:1002C000F04F106009B44FF0500080F31188BFF375
:1002D0004F8FBFF36F8F05F0BDF84FF0000080F334
:1002E000118809BC19680868B0E8F04F1EF0100FBB
:1002F00008BFB0EC108A80F30988BFF36F8F704796
:100300001C000020EFF3058070470000094880477B
:1003100009480047FEE7FEE7FEE7FEE7FEE7FEE7E7
:10032000FEE7FEE7FEE7FEE704480549054A064BFF
:100330007047000071300008AD010008D04F002068
:10034000D0550020D0510020D051002053EA020C9B
:1003500000F069802DE9F04B4FF00006002B1FBF25
:10036000B3FA83F503FA05F424FA05F65E4012BFEA
:100370001643B2FA82F502FA05F4C5F120051EBF54
:1003800022FA05FC44EA0C04203556EA044C4FEAF4
:10039000144418BF641C4FF000084FF0000990424D
:1003A00071EB030C39D3002919BFB1FA81F701FAB7
:1003B00007F6B0FA80F700FA07F6C7F120071EBF6C
:1003C00020FA07FC46EA0C062037B6FBF4FCA7EB44
:1003D0000507103F07F01F0BCBF120060CFA0BFBB3
:1003E0002CFA06F644BFB3460026202FA4BF5E4673
:1003F0004FF0000B5BEA060C08BF4FF0010B19EB46
:100400000B09ABFB027C48EB0608C01B06FB02CCC9
:100410000BFB03CC71EB0C01C1E70B4602464146D6
:100420004846BDE8F08B13B54FF000004FF00001D7
:10043000AFF30080BDE81C407047032A40F23080D3
:1004400010F0030C00F0158011F8013BBCF1020F15
:10045000624498BF11F801CB00F8013B38BF11F896
:10046000013BA2F1040298BF00F801CB38BF00F8AD
:10047000013B11F0030300F02580083AC0F008802A
:1004800051F8043B083A51F804CBA0E80810F5E70E
:10049000121D5CBF51F8043B40F8043BAFF30080F1
:1004A000D20724BF11F8013B11F801CB48BF11F866
:1004B000012B24BF00F8013B00F801CB48BF00F836
:1004C000012B704710B5203AC0F00B80B1E81850EE
:1004D000203AA0E81850B1E81850A0E81850BFF42E
:1004E000F5AF5FEA027C24BFB1E81850A0E81850CD
:1004F00044BF18C918C0BDE810405FEA827C24BF21
:1005000051F8043B40F8043B08BF7047D20728BFAE
:1005100031F8023B48BF11F8012B28BF20F8023BFD
:1005200048BF00F8012B704702F0FF0343EA0322A3
:1005300042EA024200F002B84FF000020429C0F083
:10054000128010F0030C00F01B80CCF1040CBCF105
:10055000020F18BF00F8012BA8BF20F8022BA1EB57
:100560000C0100F00DB85FEAC17C24BF00F8012B3C
:1005700000F8012B48BF00F8012B70474FF0000234
:1005800000B5134694469646203922BFA0E80C5089
:10059000A0E80C50B1F12001BFF4F7AF090728BF64
:1005A000A0E80C5048BF0CC05DF804EB890028BFE0
:1005B00040F8042B08BF704748BF20F8022B11F009
:1005C000804F18BF00F8012B704770477047704785
:1005D00010B500F009F8006810BD10B5044600F031
:1005E00003F8046010BD0000004870476C4F002005
:1005F000004870476C4F00207546FFF7F9FFAE4684
:1006000005006946534620F00700854618B020B51E
:10061000FFF78AFEBDE820404FF000064FF00007CC
:100620004FF000084FF0000B21F00701AC46ACE89A
:10063000C009ACE8C009ACE8C009ACE8C0098D4607
:10064000704710B50446AFF300802046BDE8104067
:10065000FFF7F5BD01491820ABBEFEE726000200FA
:100660007047FEE700B58BB028216846FFF786FF8C
:1006700000200121CDE90601059000900190029033
:10068000039004900E20CDE908100A4800F08EF87F
:100690006946094800F096FA48B9074800F002FE9A
:1006A00028B90221044800F013FA002800D00120E4
:1006B0000BB000BD244C00201001002030B587B0E5
:1006C0000C46054618216846FFF758FF002306939D
:1006D00084B1C5F30A00009002930820CDE90330ED
:1006E0008DF8143006AB22466946034800F002FA42
:1006F00007B030BD0120FBE71001002000B58BB032
:1007000028216846FFF73AFF01220E2100200792B8
:10071000CDE9051003900490CDE9082100900190E7
:1007200002900A4800F042F86946094800F04AFA87
:1007300048B9074800F0B6FD28B90221044800F086
:10074000C7F9002800D001200BB000BD684D002083
:100750003801002010B50C0005D00146094800F012
:100760002DF8002801DA002010BD064900EB8000BA
:1007700001EBC00124222046091DFFF7A3FE012042
:1007800010BD0000684D0020014800F02EBB0000A5
:1007900038010020014800F028BB0000380100208B
:1007A000014800F022BB000038010020002803D0DF
:1007B0004FF4A271FFF7E2BE7047000030B50200AF
:1007C0004FF000004FF0FF340ED000BF00EB80036D
:1007D00012F8335025B102EBC3035B888B4204D07F
:1007E000401CC0B20828F1D3204630BD70B5164673
:1007F0000D46040017D0002D15D0002E13D0A86888
:10080000002810D1288881B22046FFF7D7FF0028A2
:100810001ADA002000EB800214F8321021B1401CDB
:10082000C0B20828F6D370BD0028FCDB00EB8001C5
:10083000012204F8312004EBC1012A884A8094F88F
:100840004011491C84F8401100EB800004EBC00407
:10085000201D1C222946FFF735FE30682062706893
:10086000606270BD014800F0ABBD0000A80200202E
:10087000014800F0A5BD00004802002001681823CF
:10088000CAB2103AB2FBF3F2054B6FF30901032A27
:100890009B5CC36500D9091D81650846704700004F
:1008A000B468000810B5014600208B698A6A4FF0D1
:1008B000C07453B1B3F5005F15D072B1012A0CD0EA
:1008C000022A0AD0032A09D104E01AB1012A06D06B
:1008D000022A03D1C96AC90100D5012010BDC96A25
:1008E000A142FAD010BD002AF7D0012AF2D0022A84
:1008F000F3D0032AF3D010BD30B50468256825F481
:1009000080252560046863608368402B036803D0FA
:1009100099600068C26030BD9A600068C16030BDF7
:10092000704772B6FEE700002DE9F04782462DEDD4
:10093000048B86B002F0E8F9014614226846FFF7FE
:100940007CFD9DF80800604F022804D1798840465C
:1009500061F30F00804600249DF809002546012818
:1009600001D002287DD197ED020B02F089FEBDF87F
:100970001200DFF85891C0F1010101F002010840B6
:1009800000EB401000EB800109EB8100BDF8061080
:10099000B0EE408AF0EE608A084405F0D0FC53ECDB
:1009A000182B05F033FD41EC180B97ED020B02F00C
:1009B000F7FDBDF81200B0EE409A414201F004018B
:1009C000084000EB401000EB800109EB8100BDF80E
:1009D0000410F0EE609A084405F0B1FC53EC192BBA
:1009E00005F014FD53EC182B05F06EFA05F078FCB9
:1009F000064697ED020B02F043FEBDF81200B0EE82
:100A0000408A414201F00401084000EB401000EB35
:100A1000800109EB8100BDF80410F0EE608A084403
:100A200005F08DFC53EC182B05F0F0FC41EC180B95
:100A300097ED020B02F0B4FDBDF81200B0EE409A43
:100A4000C0F1010101F00201084000EB401000EB91
:100A5000800109EB8100BDF80610F0EE609A0844B1
:100A600000E027E005F06BFC53EC192B05F0CEFC01
:100A700053EC182B05F00AFE05F032FCBDF80020FF
:100A8000014608EB02008A19A0F580601318BA88A5
:100A9000534363F30F04731A0344534363F31F4434
:100AA0008B1B034453433144401A63F30F055043F7
:100AB00060F31F45CAF80040CAF8045006B0BDEC08
:100AC000048BBDE8F0870000A000002000FCFFFFC1
:100AD00090F82020012A07D0022A05D0416A41F46B
:100AE0008021416201207047006842690A434261E7
:100AF00000207047F0B590F820500468A468012DDC
:100B000005D0022D03D0416A41F4802157E014F052
:100B1000406F01D1E5004FD5C4F301640125A54024
:100B20001D608D684FF4C0739DB1CE6835434E682B
:100B300045EAC605066803EB0417F5514FF4C27584
:100B4000076805EB04150E697E51097D012905D062
:100B500009E00E88CD6845EA4655EBE701684E5935
:100B600046F480764E511179D579567941EA05617E
:100B700095792D0445EA062529434FF4C676056884
:100B800006EB0416A9511178D57841EA05619578EC
:100B900052782D0445EA022211434FF4C4750268CD
:100BA00005EB04155151006803EB0411425842F063
:100BB000010242500020F0BD416A41F4001141623F
:100BC0000120F0BD10B590F82020012A07D0022A9C
:100BD00005D0416A41F480214162012010BD3B48AB
:100BE000D0F8002242F00102C0F80022D0F8002222
:100BF00022F47C52C0F80022D0F800224B6A42EA6C
:100C00000322C0F800220A7D02F01F0301229A404D
:100C1000D0F81C329343C0F81C32CB69B3B9D0F87A
:100C20000C329343C0F80C328C894B6864F31F4339
:100C30004C6900EBC404C4F840320C890B6864F3BF
:100C40001F434C6900EBC404C4F84432CB69012B48
:100C500016D1D0F80C321343C0F80C320C884B6814
:100C600064F31F434C6900EBC404C4F840320C89A0
:100C7000CB6864F31F434C6900EBC404C4F84432EE
:100C80008B69002BD0F804320ED01343C0F8043225
:100C90000B69002BD0F8143208D01343C0F814327B
:100CA000096A012904D008E09343EFE79343F5E78D
:100CB000D0F81C121143C0F81C12D0F8001221F019
:100CC0000101C0F80012002010BD000000640040C7
:100CD000704700000246002092F82030012B01D01E
:100CE000022B05D1106821B1D0F8100000F00300EC
:100CF0007047C068FAE770B590F82040012C05D025
:100D0000022C03D0416A41F4802128E0046809B331
:100D10002469A40720D04FF4D874056804EB0114AB
:100D20002D5915F00405956005682D591AD0ED0868
:100D3000556005682C5904F00204D4604FF4DA744D
:100D4000056804EB01142E5906F00F06082E0CD38B
:100D500008250DE0E468DCE7416A41F400114162D6
:100D6000012070BD6D0D1560E3E72D5905F00F05ED
:100D7000156105682D59C5F30725956105682C593E
:100D8000240C54614FF4DC72046802EB0112A45885
:100D90001C700468A458240A5C700468A458240CCD
:100DA0009C700468A258120EDA704FF4DE72046868
:100DB00002EB0112A4581C710468A458240A5C7147
:100DC0000468A458240C9C710468A258120EDA71AD
:100DD000006829B1016941F020010161002070BD66
:100DE000C16841F02001C160F8E72DE9F05F0546D8
:100DF000006800244669D0F804908768D0F80CB0E9
:100E0000D0F810A0D0F81880F10748D0F90714D016
:100E100001218160B80703D5284600F070FA0CE084
:100E2000780702D54FF4006407E0380702D54FF485
:100E3000805402E0284600F061FAF80516D52968CA
:100E40004FF480708860B80503D5284600F059FA41
:100E50000CE0780502D544F4005407E0380502D5CB
:100E600044F4804402E0284600F04AFAF80316D51C
:100E700029684FF480308860B80303D5284600F015
:100E800042FA0CE0780302D544F4004407E038034A
:100E900002D544F4803402E0284600F033FA3007EB
:100EA00007D55FEACB6004D52968102044F40074AC
:100EB000C86070074FF0080707D55FEA0B7004D5CC
:100EC0002868C760284600F0BBF9B00706D5286837
:100ED000C068800702D0284600F0B4F9700607D534
:100EE0005FEACA6004D52968102044F48064086170
:100EF000B00607D55FEA0A7004D52868076128465E
:100F000000F0CCF9F00606D528680069800702D009
:100F1000284600F0C4F9B00308D55FEAC96005D5DA
:100F2000296810204860284600F0BAF9F00307D578
:100F30005FEA097004D528684760284600F0E4F9A4
:100F4000300446D55FEA497040D5F00504D55FEA24
:100F5000C87001D044F00104B00504D55FEA887080
:100F600001D544F00204700504D55FEA487001D54C
:100F700044F00404300529D518F0700F26D008F08D
:100F80007000402815D006DC102809D020280AD08F
:100F9000302816D10AE050280ED0602811D10EE07A
:100FA00044F008040DE044F010040AE044F020048A
:100FB00007E044F0400404E044F0800401E044F41D
:100FC00080742868816921F070018161296804209A
:100FD0004860002C05D0686A204368622846FFF705
:100FE00077FEBDE8F09F70B5040003D094F82000B0
:100FF00010B104E0012070BD204600F081F82068A7
:10100000016841F00101016000F07EFC0546052603
:1010100004E000F079FC401B0A2811D820684068E1
:10102000C007F6D02068016821F00201016000F0DD
:101030006BFC05460BE000F067FC401B0A2806D954
:10104000606A40F40030606284F82060D2E7206873
:1010500040688007EFD4207E0128206801683DD0D9
:1010600021F080010160607E01282068016838D08D
:1010700021F040010160A07E01282068016833D082
:1010800021F020010160E07E0128206801682ED057
:1010900041F010010160207F01282068016829D0FB
:1010A00021F008010160607F01282068016824D0D8
:1010B00021F004010160D4E902010843D4E90412DB
:1010C000114308436168491E08432168C861002034
:1010D0006062012084F82000002070BD41F0800192
:1010E000C0E741F04001C5E741F02001CAE721F027
:1010F0001001CFE741F00801D4E741F00401D9E73E
:101100002DE9F04387B0044614216846FFF736FA0C
:10111000464B474ADFF810811968D4F800C04448AC
:10112000022503260927DFF80C9110320024491C00
:10113000C44531D11960012907D1116841F000710E
:101140001160116801F000710591016841F0020120
:101150000160016801F002010591016841F0080198
:101160000160006802AA00F0080005904FF480704A
:10117000CDE9000582E8D0006946484600F0A4FAAF
:1011800002AA0095019582E8D00069462A4800F03D
:101190009BFA07B0BDE8F083DFF8A080C445F8D122
:1011A000D2F800C04CF0806CC2F800C0D2F800C089
:1011B00001290CF0806CCDF814C0196007D11168BA
:1011C00041F000711160116801F000710591016832
:1011D00041F002010160006802AA00F002000590DF
:1011E00042F22000CDE9000582E8D0006946484679
:1011F00000F06AFA002205213F2000F023FC3F2086
:1012000000F012FC00220521402000F01BFC4020D1
:1012100000F00AFC00220521422000F013FC4220CD
:1012200000F002FCB5E70000006400400800002068
:101230003038024000040240000C024000680040C8
:101240007047000030B589B004001DD00F492068F8
:10125000884201D10E4D11E00E49884214D10E4D45
:101260000CE007AB6A4600212046FFF744FD00284A
:101270000AD107AA69462846FFF7B8FA0021204696
:10128000FFF728FD0028ECD109B030BD0064004014
:10129000244C002000680040684D002070477047D3
:1012A0007047000070B5044690F82000012804D073
:1012B000606A40F40020606218E0022084F8200098
:1012C0002068016821F00101016000F01DFB054666
:1012D0000EE000BF00F018FB401B0A2808D9606A26
:1012E00040F400306062052084F82000012070BDC9
:1012F00020684068C007EDD1606270BD70477047DC
:10130000704770477047704770472DE9F0410446B9
:10131000876D00F0F9FA064694F83500002502289A
:1013200006D08020606584F834500120BDE8F0814B
:101330002068016821F0160101602068416921F0F0
:1013400080014161206C08B9A06C20B1206801685F
:1013500021F0080101602068016821F001010160AD
:101360000CE000F0D1FA801B052807D92020606529
:10137000032084F8350084F83450D7E720680068EB
:10138000C007EED194F85C103F208840B86001207F
:1013900084F8350084F834500020C7E790F8351001
:1013A000022903D08021416501207047052180F882
:1013B00035100068016821F00101016000207047CC
:1013C0002DE9F84304464FF00009CDF8009063483A
:1013D0004FF41651A56D0068B0FBF1F72E6894F834
:1013E0005C10082000FA01F131420FD021680A6830
:1013F00052070BD50A6822F004020A6094F85C10C8
:101400008840A860606D40F00100606594F85C1051
:101410004FF0010808FA01F0304208D0216849690C
:10142000090604D5A860606D40F00200606594F87C
:101430005C1004208840304208D021680968890780
:1014400004D5A860606D40F00400606594F85C10FD
:1014500010208840304218D021680968090714D547
:10146000A86020680168490304D50068000308D516
:10147000A16C07E00168C90503D4016821F00801E7
:101480000160216C09B12046884794F85C10202047
:101490008840304231D021680968C9062DD5A8603E
:1014A00094F8350005282068016806D0490347D51F
:1014B000006800031DD4616C1CE021F0160101607E
:1014C0002068416921F080014161206C08B9A06C5D
:1014D00020B12068016821F00801016094F85C10D7
:1014E0003F208840A86084F8358084F83490216DCE
:1014F0001FE0E16B09B120468847606D00282BD0C2
:10150000606DC00714D0052084F83500206801689C
:1015100021F0010101600098401C0090B84203D8FE
:1015200020680068C007F6D184F8358084F83490CC
:10153000E16C002910D001B02046BDE8F043084717
:101540000168C905D5D4016821F01001016084F853
:10155000358084F83490CCE7BDE8F883180000208B
:101560002DE9F041044600F0CFF906465CB10220B7
:1015700084F83500002584F834502068016821F093
:10158000010101600DE00120BDE8F08100F0BCF92F
:10159000801B052805D920206065032084F83500CC
:1015A000F2E720680068C007F0D12268116820487F
:1015B0000140D4E901031843D4E903363343184307
:1015C00063691843A3691843E3691843236A1843FE
:1015D0000843616A042903D1D4E90B131943084372
:1015E000106020684069666A20F0070130460E43AB
:1015F000012704280CD1A06A0643E06A40B12046C6
:10160000FFF750F920B14020606584F83570BAE7E3
:10161000206846612046FFF731F994F85C203F21AD
:1016200091408160656584F835700020ACE700006A
:101630003F8010F02DE9F0410446866D90F83400AB
:10164000002501280DD0012084F8340094F835706D
:101650000020012F07D084F8340002252846BDE879
:10166000F0810220FBE7022784F835706065204690
:10167000FFF742F994F85C103F208840B060206882
:10168000016841F016010160206C20B120680168FA
:1016900041F0080101602068016841F0010101602A
:1016A000DCE7000070B5044600F02EF90546601C2A
:1016B00002D004480078044400F026F9401BA04200
:1016C000FAD370BD0C0000202DE9F84FDFF8F8A127
:1016D0000022012403254FF00F090AF1040BAAF19F
:1016E000040E00BF0B6804FA02F63340B34270D117
:1016F0000F7907F00307012F01D0022F16D1876859
:101700004FEA420805FA08FC27EA0C07D1F80CC09A
:101710000CFA08FC4CEA070CC0F808C04768B7434D
:101720000E79C6F3001696403E4346600E79F643A6
:10173000B6070AD0C7684FEA420C05FA0CF6B74361
:101740008E6806FA0CF63E43C6600E7906F0030674
:10175000022E10D1D60800EB8608D8F82060570773
:101760004FEAD76C09FA0CF7BE430F6907FA0CF77A
:101770003743C8F8207006684FEA420C05FA0CF7A8
:10178000BE430F7907F0030707FA0CF737430760EA
:101790004E6816F4403F1CD04C4E376847F48047E3
:1017A0003760366822F0030706F480460096484EFC
:1017B00007EB060CDCF8086897073F0F09FA07F8F3
:1017C00026EA0806DFF80C81404503D14FF00008F7
:1017D00041E072E0DFF80081404502D14FF001089E
:1017E00039E0DFF8F880404502D14FF0020832E0DE
:1017F000DFF8EC80404502D14FF003082BE0DFF822
:10180000E480404502D14FF0040824E0DFF8D8809E
:10181000404502D14FF005081DE0DFF8D08040457B
:1018200002D14FF0060816E0DFF8C480404502D12F
:101830004FF007080FE0DFF8BC80404502D14FF0C1
:10184000080808E0DFF8B080404502D14FF00908F1
:1018500001E04FF00A0808FA07F848EA0608CCF851
:101860000888DAF800605746D1F804C09E435FEA62
:10187000CC2C00D51E433E60DBF800605F46D1F8FB
:1018800004C09E435FEA8C2C00D51E433E60DEF808
:1018900000607746D1F804C09E435FEA8C3C00D5D7
:1018A0001E433E60084F083F3E68D1F804C09E4387
:1018B0005FEACC3C00D51E433E60521C102AFFF468
:1018C00011AFBDE8F88F0000083C014044380240E9
:1018D00000300140000002400004024000080240C5
:1018E000000C0240001002400014024000180240A8
:1018F000001C024000200240002402400AB1816125
:1019000070470904FBE70000014880687047000049
:101910000C00002002488168027811448160704701
:101920000C0000200B4810B5016841F40071016003
:10193000016841F480610160016841F480710160D7
:10194000032000F09FF80F2000F006F800F050F898
:10195000002010BD003C024030B505461F4887B04E
:101960000024016841F480710160006806A900F458
:101970008070009001A800F069F90498A8B100F007
:1019800085F940001649174AB0FBF1F11648491E87
:10199000026040F2E732C0E90324C0E90114846127
:1019A00000F00AFD040003D015E000F06FF9E9E74C
:1019B0000D4800F02FFD04000DD12D2000F034F86B
:1019C000102D07D2002229462D2000F03BF80748B1
:1019D000056000E0012407B0204630BD40380240D9
:1019E00040420F00002000400803002010000020AB
:1019F0000C4882B0016841F480410160006800F445
:101A0000804000900748001F016841F0805101604C
:101A10000068002200F0805000900F21901E02B05C
:101A200000F010B844380240002809DB00F01F0223
:101A3000012191404009800000F1E020C0F8001130
:101A400070470000F0B40E4B1B680C46C3F3022332
:101A5000C3F10705042D00D90425191D072901D25A
:101A6000002300E0DB1E012606FA05F1491E214095
:101A700099409E40761E16403143F0BC01F07DBD7A
:101A80000CED00E0064900F0070208684FF6FF037E
:101A9000184040EA0220034A1043086070470000E3
:101AA0000CED00E00000FA052DE9F8431748016845
:101AB00041F0805101600068154F00F08050012610
:101AC00000903E64FFF720FF05464FF47A78114CF2
:101AD00005E000BFFFF718FF401B40450DD86068C8
:101AE000C003F7D57E64FFF70FFF0546464607E0C3
:101AF000FFF70AFF401BB04202D90320BDE8F8837C
:101B000060688003F4D50020F8E700004038024008
:101B100000000E42007000402DE9F0470E4605001F
:101B200065D0DFF81481D8F80000F7B200F00F009C
:101B3000B04207D288F80070D8F8000000F00F001B
:101B4000B04254D128683D4C810712D5400703D5D7
:101B5000206840F4E05020602878000703D5206812
:101B600040F4604020602068A96820F0F00008433D
:101B700020602878C0072DD03049686808390128CE
:101B800012D0022813D0032811D009688907002930
:101B90002DDA216821F0030101432160FFF7B4FE33
:101BA000814641F2883A0EE009688903EFE7096847
:101BB0008901ECE7FFF7A8FEA0EB0901514502D926
:101BC0000320BDE8F0872068696800F00C00B0EBE6
:101BD000810FEFD1D8F80010404601F00F01B1425B
:101BE00007D90770006800F00F00B04201D0012053
:101BF000E7E72878400705D52068E96820F4E05039
:101C0000084320602878000706D52068296920F459
:101C1000604040EAC100206000F058F82168084A9E
:101C2000C1F30311515CC8400649086006480068CA
:101C3000FFF792FE0020C4E7003C02400838024053
:101C4000BC68000818000020100000200F2202606D
:101C50000C4A136803F003034360136803F0F003B6
:101C60008360136803F4E053C36012684FF4E053D9
:101C700003EAD20202610448006800F00F00086025
:101C80007047000008380240003C02400448054903
:101C900000680968044AC1F38221515CC84070475A
:101CA0001800002008380240CC68000804480549A4
:101CB00000680968044AC1F34231515CC84070476A
:101CC0001800002008380240CC680008154810B5FC
:101CD000006810F00C02144813D01449042A0FD0E5
:101CE000082A0ED10F4C241F2268236802F03F02FD
:101CF0005B0207D52068C0F38810A0FB010106E055
:101D0000084610BD2168C1F38811A1FB0001002322
:101D1000FEF71CFB2168C1F30141491C4900B0FBDF
:101D2000F1F010BD083802400024F40040787D0135
:101D30002DE9F84F04006ED02078DFF84C93C007EF
:101D4000A9F104054AD009F104000168C1F3810139
:101D5000012908D00068C0F3810002280AD1D9F80F
:101D60000000400206D52868800337D56068002847
:101D7000E1D033E06068B0F5803F10D0B0F5A02F1F
:101D8000286810D020F480302860286820F4802053
:101D900028606068A8B1FFF7B7FD06460DE0286827
:101DA00040F48030F4E740F480202860F7E700BF7B
:101DB000FFF7AAFD801B642873D828688003F7D535
:101DC0000CE0FFF7A1FD064605E000BFFFF79CFD14
:101DD000801B6428F0D828688003F7D42078DFF8C7
:101DE000AC8280074FF0000A3ED5A748001D01686D
:101DF00011F00C0F08D00068C0F3810002280BD14D
:101E0000D9F80000400207D42868800716D5E0689A
:101E1000012800D112E033E1E068B8B10120C8F830
:101E20000000FFF771FD064605E000BFFFF76CFDFF
:101E3000801B0228C0D828688007F7D52868216948
:101E400020F0F80040EAC10028600DE0C8F800A0CA
:101E5000FFF75AFD064604E0FFF756FD801B0228F7
:101E60001FD828688007F7D42078000722D5864F2E
:101E700087486169703771B101210160FFF744FD46
:101E8000064604E0FFF740FD801B022809D83868A9
:101E90008007F7D50EE0C0F800A0FFF735FD064635
:101EA00005E082E0FFF730FD801B02287DD838680E
:101EB0008007F7D42078400768D5DFF8CCB1002739
:101EC0000BF13C0BDBF80000C0000BD4DBF800107A
:101ED00041F08051CBF80010DBF80000012700F042
:101EE000805000906B4E3068C00510D4306840F4CC
:101EF00080703060FFF708FD009005E0FFF704FDFB
:101F00000099401A022850D83068C005F6D55E4EB8
:101F1000A0686C3601280FD00528306810D020F05A
:101F200001003060306820F004003060A068B8B173
:101F3000FFF7EAFC00900FE0306840F00100F4E7A2
:101F400040F004003060F7E7FFF7DEFC0099411A2B
:101F500041F28830814266D830688007F4D50EE0BF
:101F6000FFF7D2FC009007E0FFF7CEFC0099411A82
:101F700041F28830814256D830688007F4D42FB1BE
:101F8000DBF8001021F08051CBF80010A069C8B335
:101F90003D49091D0968C1F3810102294AD002287F
:101FA000504607D0C8F8600000E03CE0FFF7ACFC0A
:101FB00004463BE04746C8F86000FFF7A5FC06462C
:101FC00005E000BFFFF7A0FC801B02282BD8286883
:101FD0008001F7D4D4E907010843A16A2E4A4908D1
:101FE00002EB0141626A41EA8211084394F82C1025
:101FF00040EA0161C9F8001001203866FFF784FC4F
:10200000044606E03EE000BFFFF77EFC001B02280E
:1020100009D828688001F7D534E000BFFFF774FCC9
:10202000001B022802D90320BDE8F88F2868800130
:10203000F4D427E00128F7D0D9F80000E26900F4D1
:10204000800191421CD1226A00F03F01914217D1D8
:1020500047F6C071626A0140B1EB821F10D1A26ADB
:102060004FF0FF3300F4403103EB5202B1EB024F6B
:1020700006D194F82C1000F07060B0EB016F01D025
:102080000120D1E70020CFE704380240000047429A
:10209000800E4742007000400000FFFF70B5040052
:1020A00009D0606A002540B125616561A56294F898
:1020B000510040B10CE0012070BD6068B0F5827F36
:1020C000F4D0E561F2E784F85050204600F044F87F
:1020D000022084F851002068016821F0400101606D
:1020E000A088218900F4827001F404410843A18989
:1020F00001F400610843217C01F002010843217DC5
:1021000001F001010843218B01F400710843217F94
:1021100001F03801084394F8201001F080010843D1
:10212000218D01F40051084321680860A069042151
:1021300001EA104094F8241001F0100108432168CE
:1021400048602068C16921F40061C16165650120B2
:1021500084F85100002070BD10B586B004461421EB
:102160006846FEF70BFA14492068884221D11348CB
:102170000021026842F480120260006800F48010BE
:1021800005900E481438026842F020020260006890
:1021900000F0200005904FF4607000900220CDE91F
:1021A0000101032003900520049069460448FFF7CD
:1021B0008BFA06B010BD00000050014044380240C8
:1021C000001402402DE9FF4F81B01D46934604469E
:1021D0004FF001090E9EFFF797FB074694F8510058
:1021E0006168012806D0B1F5827F3CD1A168C9BBE6
:1021F000042838D10298002871D0BBF1000FFBD021
:10220000002DF9D094F8500001282CD04FF0010A8D
:1022100084F850A094F85100042802D0052084F8D6
:1022200051004FF00008C4F85480C4F838B0E58776
:10223000A58702992163E586A586C4F84080C4F885
:10224000448020680168490603D4016841F04001D8
:102250000160E068B0F5006F606808D0F0B3012D50
:1022600049D081E0FFE7022005B0BDE8F08F08B15A
:10227000012D39D1206B21680088C860206B801C3B
:102280002063E08E401EE0862EE02068816889078A
:102290000FD5E18E69B1B9F1010F0AD1216B09881F
:1022A000C160206B801C2063E08E401EE0864FF0F2
:1022B000000920688168C9070CD0E18F51B1C0685E
:1022C000A16B0880A06B801CA063E08F401EE0879C
:1022D0004FF00109FFF718FBC01B01E00BE067E0BE
:1022E000B04201D3701C50D1E08E0028CDD1E08FD8
:1022F0000028CAD13EE0206B216800780873206B6B
:10230000401C2063E08E401EE0862DE0206881683E
:1023100089070FD5E18E69B1B9F1010F0AD1216B9F
:1023200009780173206B401C2063E08E401EE0861C
:102330004FF0000920688168C9070CD0E18F51B1C6
:10234000C068A16B0870A06B401CA063E08F401EAA
:10235000E0874FF00109FFF7D7FAC01BB04202D364
:10236000701C01D011E086B1E08E0028CED1E08F44
:102370000028CBD13A463146204600F025FD50B129
:102380002020606584F8508012E084F851A084F821
:102390005080032068E7A06818B92068C168806889
:1023A000009084F851A084F85080606D0028F1D02E
:1023B000012059E77047704710B5040003D094F826
:1023C0003D0010B107E0012010BD002084F83C0062
:1023D000204600F01EF8022084F83D00211D2068F0
:1023E00000F054FE012084F8460084F83E0084F892
:1023F0003F0084F8400084F8410084F8420084F8EB
:10240000430084F8440084F8450084F83D0000202F
:1024100010BD704790F83D10012901D00120704790
:10242000022180F83D100168CA6842F00102CA60CA
:1024300000681149884214D0B0F1804F11D00F4983
:1024400088420ED00E4988420BD00E49884208D0EF
:102450000D49884205D00D49884202D00C49884276
:1024600004D1816801F00701062903D0016841F019
:10247000010101600020704700000140000400409D
:1024800000080040000C00400004014000400140F2
:102490000018004070472DE9F04104460068C66806
:1024A00005694FF00007A90713D5B10711D5F91E2B
:1024B000016101202077206880698007204602D0D2
:1024C000FFF7E8FF04E000F07EF8204600F07CF81B
:1024D0002777680716D5700714D521686FF00400B8
:1024E0000861022020772068806910F4407F204630
:1024F00002D0FFF7CFFF04E000F065F8204600F0BF
:1025000063F82777280715D5300713D521686FF0B2
:1025100008000861042020772068C06980072046F1
:1025200002D0FFF7B7FF04E000F04DF8204600F0BE
:102530004BF82777E80616D5F00614D521686FF01A
:1025400010000861082020772068C06910F4407FDF
:10255000204602D0FFF79EFF04E000F034F820464A
:1025600000F032F82777E80708D0F00706D0216896
:102570006FF001000861204600F028F8280608D511
:10258000300606D521686FF0800008612046FFF70D
:1025900011FF680608D5700606D521686FF0400067
:1025A0000861204600F01CF8A8060AD5B00608D538
:1025B00021686FF0200008612046BDE8F041FFF778
:1025C000FABEBDE8F081704770470000006803491B
:1025D000884201D1FFF79EB97047000000200040FB
:1025E000704738B5044690F84200202801D00220F8
:1025F00038BD51B14AB101202063002060632046FC
:1026000000F046FF216B012901D0012038BD21686F
:102610000A684968009121680C3151E8002F42F0A6
:10262000100241E80023002BF5D138BD70B5002819
:1026300023D00068114A90421FD1114C114D12292C
:10264000207805D100EBC00005EB400000F084FBD2
:102650002078122280F00100207000EBC00005EB12
:1026600040010948FFF7BDFF0748C06B002804D0B0
:102670000068016821F00801016070BD0048004059
:102680009C000020AC4E002000020020704700009B
:10269000F8B5016804460868CA684B6910F00F0F66
:1026A0004FF0000559D003F0010602F4907737434C
:1026B00065D0C10705D0D10503D5616C41F001019A
:1026C0006164410705D5D90703D0616C41F002016F
:1026D0006164810705D5D90703D0616C41F004011D
:1026E0006164010707D502F02001314303D0616C1A
:1026F00041F008016164616C00293AD0800604D57C
:10270000900602D5204600F0DCFD20684069616C2F
:10271000C0F38010090700D460B3204600F09CFD90
:1027200020684069400621D52068143050E8001F19
:1027300021F0400140E80012002AF5D1E06BA8B179
:1027400072490165E06BFEF729FE002811D0E06BAD
:10275000016D01B0BDE8F040084783060FD5930630
:102760000DD52046BDE8F84000F0ABBD2046FFF790
:102770008DFFF8BD2046FFF789FF6564F8BD266B25
:102780002023012E7ED1C6067CD5D6067AD50868D0
:102790004868009048694FF0020640064DD5E26B4C
:1027A000106840684FF480770004000C3AD0A18D87
:1027B000814237D9E085D069B8422DD020680C30ED
:1027C00050E8001F21F4807140E80012002AF5D182
:1027D0002068143050E8001F21F0010140E8001289
:1027E000002AF5D12068143050E8001F21F0400184
:1027F00040E80012002AF5D184F8423025632068B1
:102800000C3050E8001F21F0100140E80012002AAF
:10281000F5D1E06BFEF779FD6663A08DE18D401A7E
:1028200081B206E0A18D8142A8D1D069B842A5D17C
:1028300066632046FFF7FAFEF8BDA08DE18D401AD1
:1028400081B2E08D0028F7D00029F5D020680C3047
:1028500050E8002F22F4907240E80027002FF5D1B5
:102860002068143050E8002F22F0010240E80027D1
:10287000002FF5D184F84230256320680C3050E8F1
:10288000002F00E006E022F0100240E80023002BB9
:10289000F3D1CDE705062BD5150629D594F84100CF
:1028A0002128C9D1A068B0F5805F01D12069B0B1FD
:1028B000206A411C2162216800784860E08C401E3B
:1028C0000004000CE084B7D12068C16821F08001C9
:1028D000C1602068C16841F04001C160F8BD206A54
:1028E0000088C0F308004860206A801C2062E5E789
:1028F0004006F3D55006F1D5CA68204622F04002C2
:10290000CA6084F8413000F0D7F8F8BD5D310008A6
:1029100070B5040004D094F84100002510B106E021
:10292000012070BD84F84050204600F023F8242098
:1029300084F841002068C16821F40051C16020463C
:1029400000F020FD2068016921F4904101612068B8
:10295000416921F02A0141612068C16841F40051B8
:10296000C1606564202084F8410084F842006563FA
:10297000002070BD2DE9F04186B00646142168465E
:10298000FDF7FCFDDFF80CC102223168002442484B
:102990000323072597064FF48068614537D13E49E8
:1029A0001431D1F800C04CF0100CC1F800C0096817
:1029B00001F010010591016841F002010160006819
:1029C000694600F002000590C0208DE81500CDE9B1
:1029D00003353248FEF778FE324D31482860C5E9AC
:1029E0000174C5E903486C61AC61EC612C62284656
:1029F0006C62FEF7B5FD08B1FDF793FFF5630022A9
:102A000005212520AE63FFF71DF825203CE0DFF807
:102A100098C061453AD120491031D1F800C04CF43A
:102A2000802CC1F800C0096801F48021059101687B
:102A300041F0040101600068694600F0040005905F
:102A40004FF440608DE81500CDE903351748FEF7D7
:102A50003BFE144D164860352860C5E90174C5E990
:102A600003486C61AC61EC612C6228466C62FEF735
:102A700077FD08B1FDF755FFF563002205212720FA
:102A8000AE63FEF7DFFF2720FEF7CEFF06B0BDE8FE
:102A9000F081000000100140303802400004024084
:102AA0004064024048020020004800400008024004
:102AB00028600240704770477047FEE70D4810B528
:102AC0000B4901601021416000218160C1600161FA
:102AD0004161017641768176C17601774177FEF7D3
:102AE00082FA002803D0BDE81040FDF71ABF10BDE0
:102AF00000640040100100200D4810B50B49016032
:102B00000F21416000218160C16001614161017656
:102B100041768176C17601774177FEF764FA002825
:102B200003D0BDE81040FDF7FCBE10BD00680040BA
:102B300038010020114808B5016841F480010160A6
:102B4000016801F480010091016841F40011016005
:102B50000068002200F40010009005210C20FEF710
:102B600071FF0C20FEF760FF002205213A20FEF7DE
:102B700069FFBDE808403A20FEF756BF30380240F2
:102B800010B5074A0021074801F0E8FD064C044A49
:102B9000002120602432054801F0E0FD606010BD96
:102BA0006C680008F12E000800000020F92E0008D3
:102BB00030B587B014216846FDF7E0FC21480024B9
:102BC000016841F002010160016801F00201059114
:102BD000016841F001010160016801F00101059106
:102BE000016841F004010160016801F004010591F0
:102BF000016841F008010160016801F008010591D8
:102C0000016841F080010160016801F080010591D7
:102C1000016841F02001016000680B4D00F02000C8
:102C20000590002240212846FEF768FE40200090D3
:102C30000120CDE90104694628460394FEF744FDCE
:102C400007B030BD30380240001402400F4810B5C4
:102C50000D4901604FF48271416000218160C160C3
:102C60004FF400720161C0E90512C1610162416265
:102C700081620A21C162FFF711FA002803D0BDE882
:102C80001040FDF74EBE10BD005001406001002015
:102C90000C4810B50A4901604FF4E1314160002150
:102CA00081600C22C160C0E904128161C161FFF73B
:102CB0002FFE002803D0BDE81040FDF732BE10BD46
:102CC00000100140B80100200C4810B50A4901600D
:102CD0000B494160002181600C22C160C0E90412EF
:102CE0008161C161FFF714FE002803D0BDE81040E8
:102CF000FDF717BE10BD0000004800400002002094
:102D0000A0860100FEE7FEE700487047D04E002095
:102D100010B514210D48FDF70FFC0C482421243870
:102D2000FDF70AFC0A4900201222087007490948E9
:102D30002439FFF756FC0748C06B002804D0006810
:102D4000016821F00801016010BD0000D04E002094
:102D50009C00002000020020002832D00188C1F32E
:102D60000A0218490A8042788378D20842EA43125C
:102D7000C2F30A024A808278C378920942EA830247
:102D8000037942EA8322C2F30A028A8002794379F4
:102D9000520842EAC312C2F30A02CA804279920977
:102DA0000A724279C2F301124A72C2884A810289C8
:102DB0008A814289CA81027B0A74427B4A74C08933
:102DC00048827047D04E0020F8B515460E460B4697
:102DD000009204460122022100F02CF8A0B9134809
:102DE00013490068B0FBF1F04FF47A71484300904A
:102DF0006068B0F5827F0DD13346002280212046E5
:102E0000009500F017F870B1606D40F0200060652B
:102E10000320F8BD009830B1401E00902068806803
:102E2000C0430006F6D50020F8BD000018000020C1
:102E300000366E012DE9F8431E4691468846044649
:102E4000089DFEF761FD401B351AFEF75DFD074644
:102E500026480068C0F3CB3068430AE0701C09D0F4
:102E6000FEF752FDC01BA8420FD275B10098B8B34F
:102E7000401E00902068816838EA010033D00021AC
:102E80004945EBD10020BDE8F8832068416821F076
:102E9000E00141606068B0F5827F0BD1A068B0F5B9
:102EA000004F02D0B0F5806F04D12068016821F096
:102EB00040010160A06AB0F5005F09D12068016897
:102EC00021F4005101602068016841F40051016063
:102ED000012084F85100002084F850000320D2E73C
:102EE000FFE70025C6E70121CAE70000180000201F
:102EF000012001F0F7FBFBE72DED068B84B00025E8
:102F000040F20127244E254C9FED258B9FED269BFB
:102F10009FED27AB4FF400781F493846FDF71AFCA8
:102F2000B08B2188401A03F00AFA53EC182B03F0F7
:102F30006DFA53EC192B03F069FA53EC1A2B03F0DA
:102F400065FAC4E9020102A8FDF7EEFC0095BDF8A0
:102F500008008DF80000000A8DF80100BDF80A0095
:102F60008DF80200000A8DF803000195BDF80C00F1
:102F70008DF80400000A8DF80500BDF80E008DF8EC
:102F80000600000A8DF8070069464046FDF796FBEB
:102F9000012001F0A7FBBFE7E44E0020A0000020C5
:102FA0000000000000000040182D4454FB2109409F
:102FB000000000000000203F10B54FF0E020006945
:102FC00002F0C0FD012803D0BDE8104002F0EEBAC7
:102FD00010BD000070B592B030216846FDF7CEFA02
:102FE00014210CA8FDF7CAFA1F480025016841F01A
:102FF00080510160006800F0805011901B4801680A
:1030000041F4404101600068022400F44040119006
:1030100001200090000401908001CDE906400F26B8
:103020000896D820CDE9090404200B906846FEF7E5
:103030007FFE08B172B6FEE7FEF736FD08B172B644
:10304000FEE74FF4A050CDE90E504FF48050CDE98B
:103050000C64109005210CA8FEF75EFD002801D03D
:1030600072B6FEE712B070BD4038024000700040FA
:103070000248016841F470010160704788ED00E08A
:103080000148FFF708BA000008030020F0B5026805
:10309000274B284D284E294F294C4FF0804C984201
:1030A00009D0604507D0A84205D0B04203D0B8424D
:1030B00001D0A04204D122F0700E4A6842EA0E020A
:1030C00098421BD0604519D0A84217D0B04215D005
:1030D000B84213D0A04211D01A4DA8420ED01A4DBA
:1030E000A8420BD0194DA84208D0194DA84205D0CE
:1030F000184DA84202D0184DA84203D122F44075C1
:10310000CA682A434D6922F080022A438D68C5624D
:103110000D688562984201D0A04201D1096901631E
:10312000016841F004010160012141610260F0BDCC
:10313000000001400004004000080040000C004076
:1031400000040140004001400044014000480140AB
:1031500000180040001C00400020004010B5806BAB
:103160000021C185FFF792FA10BD70B5846B20680D
:10317000406994F84110C0F3C0100025212904D102
:1031800018B1E584204600F08EF82068406994F874
:103190004210C0F38010222904D118B1E5852046E1
:1031A00000F05AF8606C40F0100060642046FFF7B1
:1031B0006DFA70BD10B50146806B096809684FF063
:1031C0000002C9052ED4C28501680C3151E8003FC8
:1031D00023F4807341E80034002CF5D101681431E8
:1031E00051E8003F23F0010341E80034002CF5D101
:1031F0000168143151E8003F23F0400341E80034F6
:10320000002CF5D1202180F84210016B012909D151
:1032100001680C3151E8003F23F0100341E800340D
:10322000002CF5D14263016B012902D0FFF742FC6B
:1032300010BD818DFFF7FAF910BD10B5806B01212B
:103240004163016B012902D0FFF735FC10BD818D70
:103250004908FFF7EBF910BD01680C3151E8002F68
:1032600022F4907241E80023002BF5D1016814315B
:1032700051E8002F22F0010241E80023002BF5D194
:10328000016B012909D101680C3151E8002F22F0AE
:10329000100241E80023002BF5D1202180F84210D4
:1032A00000210163704701680C3151E8002F22F0C2
:1032B000C00241E80023002BF5D1202180F8411005
:1032C000704708B590F84210222901D0022008BDAD
:1032D00082684FF480539A4201D1016921B1816A19
:1032E0009A421BD04AB10AE00268816A5268C2F36E
:1032F00008020A80816A891C08E0026972B10268CA
:10330000526802F07F020A70816A491C8162C18D95
:10331000491E0904090CC18503D01BE002685268EC
:10332000F1E70168CA6822F02002CA600168CA6831
:1033300022F48072CA6001684A6922F001024A617F
:10334000202180F8421000214163026B012A03D042
:10335000FFF7B0FB002008BD016301680C3151E8A4
:10336000002F22F0100241E80023002BF5D1016864
:103370000A68D20602D50A6849680091818DFFF774
:1033800055F9E7E770B5044600680169E26821F481
:103390004051114301612169A068E26908436169F4
:1033A000114308432168CA6849F20C639A430243F7
:1033B000CA6020684169A26921F4407111434161EA
:1033C00031492068884202D03049884202D1FEF754
:1033D0006DFC01E0FEF75AFCE26900231921642527
:1033E0003226B2F5004F626828D0A0FB0101930F8E
:1033F0009200FCF7ABFF0146B0FBF5F06FF018024E
:10340000504301EB800006EB0010B0FBF5F000F03C
:10341000F002B1FBF5F002EB0012B1FBF5F06FF03A
:103420001803584301EB800006EB0010B0FBF5F0E9
:1034300000F00F0021681044886070BDA0FB0101FE
:1034400092185B41FCF782FF0146B0FBF5F00201E8
:10345000B1FBF5F06FF01803584301EB800006EB69
:10346000C000B0FBF5F000F0F80002EB4002B1FB49
:10347000F5F0584301EB800006EBC000B0FBF5F01F
:1034800000F00700D6E700000010014000140140E2
:1034900038B581620446828500201346606422228A
:1034A00084F84220E56B1F4AEA63E56B1E4A2A64F2
:1034B000E56B1E4AEA64E26B10650A462168E06B20
:1034C000091DFEF7B7F830B110206064202084F8A1
:1034D0004200012038BD20680168406800902069E2
:1034E00048B120680C3050E8001F41F4807140E87A
:1034F0000012002AF5D12068143050E8001F41F076
:10350000010140E80012002AF5D12068143050E88B
:10351000001F41F0400140E80012002AF5D10020D0
:1035200038BD0000B53100083B3200086B3100089F
:103530000148FFF7ADB80000B80100200148FFF7CF
:10354000A7B8000000020020FEE703B40198410084
:10355000009850EAC12018BF04204A0D18BF40F05F
:10356000010040F2FF72B2EB515F08BF40F0020071
:10357000012808BF052002B070470907090E00287E
:1035800004DB00F1E02080F80014704700F00F0029
:1035900000F1E02080F8141D7047000000000000DA
:1035A00010B52F499FED2C1B2DED020B84B0059813
:1035B00020F000408842D8BF9DED040B2DDD294945
:1035C000884209D1049840B94FF00100FDF705F891
:1035D00000F0AEFC06B010BD05DB9DED040B00F065
:1035E0009BFC06B010BD68469DED040B00F0ACF8E6
:1035F00010F0030004BF9DED021B9DED000B0CD0ED
:1036000001280ED09DED021B9DED000B022817D066
:10361000012000F0E9FB06B010BD00F0B1FA06B0E1
:1036200010BD9DED021B9DED000B012000F0DCFBA9
:1036300051EC100B02F03CFC06B041EC100B10BD3D
:1036400000F09EFA51EC100B02F032FC06B041EC97
:10365000100B10BD00000000000000000000000082
:10366000FB21E93F0000F07F2DED020B019820F0D7
:10367000004001909DED000B02B07047000000007B
:1036800010B52F499FED2C1B2DED020B84B0059832
:1036900020F000408842DCBF00209DED040B32DDAD
:1036A0002849884209D1049840B94FF00100FCF73D
:1036B00094FF00F03DFC06B010BD05DB9DED040B52
:1036C00000F02AFC06B010BD68469DED040B00F02A
:1036D0003BF810F0030011D0012818D09DED021B1B
:1036E0009DED000B02281AD000F04AFA51EC100BA5
:1036F00002F0DEFB06B041EC100B10BD9DED021B8D
:103700009DED000B012000F06FFB06B010BD9DED9C
:10371000021B9DED000B00F033FA06B010BD012036
:1037200000F062FB51EC100B02F0C2FB06B041EC62
:10373000100B10BD000000000000000000000000A1
:10374000FB21E93F0000F07F2DE9F14F04462DED0C
:10375000020B2DED088B8AB09FEDE70B80ED020B7D
:10376000139EE74826F0004585420ADC9DED120BCA
:10377000002084ED000B0AB0BDEC088B03B0BDE85F
:10378000F08FE0489FEDE0AB9FEDE1BBA84247DD45
:10379000E14F9FEDE39B9FEDE48B9DED120B53EC0E
:1037A0001A2B51EC100B002E1CDD02F06FFF41ECC8
:1037B000100BBD4208D053EC1B2B51EC100B02F048
:1037C00065FFC4E900010BE053EC192B51EC100B21
:1037D00002F05CFF53EC182B02F058FFC4E9000123
:1037E0000120C8E702F070FB41EC100BBD4208D08D
:1037F00053EC1B2B51EC100B02F066FBC4E90001EB
:103800000BE053EC192B51EC100B02F05DFB53EC69
:10381000182B02F059FBC4E900014FF0FF30AAE772
:10382000C348A84279DB9DED120B51EC100B00F060
:103830009FFB41EC180B9FEDC00B53EC102B02F0DB
:10384000E5FD9FEDBF1B53EC112B02F03DFB02F099
:1038500047FD074602F073FD41EC190B53EC1A2BA0
:1038600002F0D4FD53EC182B02F004FF41EC180BCE
:1038700053EC1B2B51EC190B02F0C8FDDFF8C8A26A
:1038800041EC100B4FEA15580125FA4453EC102B6C
:1038900051EC180B02F0FAFE032DC4E900013DD0F3
:1038A000C1F30A5005EB4511A8EB00001139814224
:1038B00034DA0AEB051BB0EE48AA9BED000BF0EEE4
:1038C00068AA53EC102B51EC190B02F09FFD41EC50
:1038D0001B0B51EC1A0B53EC1B2B02F0D7FE41ECE7
:1038E000180B51EC1A0B53EC182B02F0CFFE53ECD3
:1038F0001B2B02F0CBFE9BED020B41EC1A0B53ECA1
:10390000102B51EC190B02F081FD53EC1A2B02F035
:10391000BDFE41EC100B6D1CB8E70EE0002EA8BFF9
:103920003846BFF628AF94ED000B51EC100B02F0B7
:10393000BFFAC4E9000178421DE7C6F3130040F462
:10394000801EC6F30A50A0F2F530471100F01F05A3
:10395000C5F12000DDF848B00890002006900790DF
:103960000520EC467949002D07EB0002794408BF99
:1039700051F8221009D051F8223001EB8201AB40FE
:103980004A68089922FA01F11943A1FB0E26A1FB0E
:103990000B131A449A4234BF0123002303EB060899
:1039A0000CEB8003D3E901A60E448E4234BF012103
:1039B000002192448A4411B1924502D903E0924514
:1039C00001D2012100E00021C3E901A641444CF8E5
:1039D0002010011EA0F10100C4DC029800F100508B
:1039E000850F0298DDE903678000DDF8148002F09E
:1039F000A6FC41EC1A0B304602F0B8FC9FED541BBC
:103A000053EC112B02F002FD41EC1B0B384602F087
:103A1000ADFC9FED511B53EC112B02F0F7FC41EC78
:103A2000180B404602F0A2FC9FED4D1B53EC112BEE
:103A300002F0ECFC41EC190B51EC180B53EC192B78
:103A400002F042FA53EC1B2B02F03EFA53EC1A2B15
:103A500002F03AFACDE90801002008909DED080B2C
:103A600053EC1A2B51EC100B02F010FE53EC1B2BF5
:103A700002F00CFE53EC182B02F008FE53EC192B4D
:103A800002F0F8FD9FED381B53EC112B02F0BEFC49
:103A90009FED370B41EC180B53EC102B9DED080BF1
:103AA00051EC100B02F0B2FC53EC182B02F00CFAA4
:103AB0009FED310B41EC180B53EC102B9DED080BD7
:103AC00051EC100B02F0A2FC53EC182B02F0FCF9A5
:103AD00041EC100B139810F0004F06D06D4251ECE2
:103AE000100B02F0E5F941EC100B284684ED000BB9
:103AF00041E600000000000000000000000000009F
:103B0000FB21E93F7CD9024000004054FB21F93FF2
:103B10003163621A61B4D03DFB21F93F000000001F
:103B20000000601A61B4D03D7370032E8A19A33B64
:103B3000FB2139410000000083C8C96D305FE43FBC
:103B4000000000000000E03F8A300000D82F000095
:103B5000000000000000103E000000000000103CCB
:103B6000000000000000103A182D4454FB21F93DDC
:103B70003326A611460B113C00000054FB21F93DF1
:103B800010B52DED040B2DED088B82B0B0EE419AEF
:103B9000F0EE619A0B9820F000449FED4BABB4F12E
:103BA000795F11DA9DED0A0B51EC100B02F098FBD6
:103BB000002801BFB0EE4A0AF0EE6A0A02B0BDEC7E
:103BC000088B04BF04B010BD9DED0A0B53EC102B05
:103BD00051EC100B02F01AFC41EC180B3C4806218A
:103BE000B0EE480AF0EE680A784400F081F853EC31
:103BF000182B51EC100B02F009FC9DED0A0B41EC67
:103C00001B0B53EC192B51EC100B02F0FFFB41EC9A
:103C1000190B53EC1B2B51EC180B02F0F7FB53EC78
:103C2000192B02F033FD9FED2C0B41EC190B53ECDB
:103C3000102B51EC180B02F0E9FB41EC100B28485B
:103C4000844210DA53EC192B51EC100B02F01EFDDC
:103C500053EC1A2B02F00EFD41EC100B02B0BDEC40
:103C6000088B04B010BD1F48A042BCBF9FED1E1BB7
:103C70008DED001B06DBA4F50010019000200090E4
:103C80009DED001B51EC100B53EC112B02F0FEFCD0
:103C90009DED000B41EC180B53EC102B51EC1A0B63
:103CA00002F0F4FC41EC1A0B53EC192B51EC180BFD
:103CB00002F0ECFC53EC1A2B02F0DCFC41EC100B94
:103CC000CCE7000000000000000000000000F03F12
:103CD000FC2C000000000000000000000000E03F9D
:103CE0003333D33F0000E93F000000000000D23F23
:103CF00070B504462DED028B4D1E00EBC500B0EEF5
:103D0000408AF0EE608A90ED000B35F0060017D087
:103D100053EC182B51EC100B02F078FB41EC100B1C
:103D20006D1E04EBC50090ED001B51EC100B53EC25
:103D3000112B02F0C9F841EC100B35F00600E7D169
:103D4000022D36D0042D1CD0062D1CBFBDEC028BDD
:103D500070BD53EC182B51EC100B02F057FB94ED97
:103D60000A1B53EC112B02F0AFF853EC182B02F0A6
:103D70004DFB94ED081B53EC112B02F0A5F841EC20
:103D8000100B53EC182B51EC100B02F03FFB94ED91
:103D9000061B53EC112B02F097F853EC182B02F092
:103DA00035FB94ED040B53EC102B02F08DF841EC35
:103DB000100B53EC182B51EC100B02F027FB94ED79
:103DC000021B53EC112B02F07FF853EC182B02F07E
:103DD0001DFB94ED001B53EC112B02F075F8BDECAC
:103DE000028B41EC100B70BD31B504462DED040B78
:103DF0002DED0A8BB0EE41BAF0EE61BA0B989DED55
:103E00000A0B20F00040B0F1795F0DDA51EC100B95
:103E1000FFF79BFB042808BF00F09AF89DED0A0B02
:103E2000BDEC0A8B05B030BD53EC102B51EC100BE0
:103E300002F0ECFA41EC180B9DED0A0B53EC182B39
:103E400051EC100B02F0E2FA41EC190B2C48B0EEE9
:103E5000480AF0EE680A05217844FFF749FF9FED14
:103E60002ACBB0EE40AAF0EE60AA9CB353EC1C2B18
:103E700051EC190B02F0CAFA41EC1C0B53EC1A2B53
:103E800051EC190B02F0C2FA9FED210B41EC190B1A
:103E900053EC102B51EC1B0B02F0B8FA53EC192B1E
:103EA00002F0F4FB53EC182B02F0B0FA53EC1B2B8E
:103EB00002F0ECFB53EC1C2B02F0E8FB9DED0A1B1F
:103EC00053EC112B02F0D6FBBDEC0A8B05B041EC94
:103ED000100B30BDFFE753EC1A2B51EC180B02F01E
:103EE00095FA53EC1C2B01F0EFFF53EC192B02F069
:103EF0008DFA9DED0A1B53EC112B01F0E5FFE3E772
:103F0000842B000000000000495555555555C5BF8C
:103F1000000000000000E03F10B553EC102B51EC06
:103F2000100B01F0D1FF41EC100B10BD00000000A0
:103F30009FED050B10B553EC102B51EC100B02F05C
:103F400077F841EC100B10BD0000000000000000ED
:103F50009FED050B10B553EC102B51EC100B02F03C
:103F600055FA41EC100B10BD0000000000000010DD
:103F700082B0CDE9000121F0004001909DED000BE1
:103F800002B051EC100B704710B559482DED0A8B5B
:103F9000B0F90610B0F908009FED569BDFED57BA57
:103FA000574C9FED588A9FED58BADFED58AA9FED08
:103FB00058AADFED588A00294EDA9FED57CA00282B
:103FC0002ADA91FBF0F002F0BAF941EC100BFFF79E
:103FD0004BFB53EC192B51EC100B02F015FB0AD8DC
:103FE000C4ED01BA84ED028A9FED4C0A84ED030A08
:103FF0009FED4B0A0BE09FED4B0A84ED010A9FED0C
:104000004A0A84ED020A84ED03BA9FED480A84ED62
:10401000040ABDEC0A8B10BDFBDD91FBF0F002F051
:104020008EF941EC100BFFF71FFB53EC192B51ECF1
:10403000100B02F0E9FA84ED01CA06D884ED028A79
:10404000C4ED03AA9FED3A0AE1E784ED02AAC4EDAC
:10405000038A9FED380ADAE7DBDD00289FED36CAD8
:1040600022DD91FBF0F002F06AF941EC100BFFF752
:10407000FBFA53EC192B51EC100B02F0C5FA0AD8DD
:104080009FED2E0A84ED010AC4ED02AA84ED038A95
:10409000C4ED04BABDE79FED2A0A84ED010AC4ED20
:1040A000028A84ED03AAB2E7B3DA91FBF0F002F0E2
:1040B00046F941EC100BFFF7D7FA53EC192B51ECF2
:1040C000100B02F0A1FA84ED01CA08D89FED1D0A79
:1040D00084ED020A84ED038A9FED1B0A97E79FEDAA
:1040E0001B0A84ED02BA84ED030A9FED190A8EE7DC
:1040F000084F0020000000000000F03F0AD7A3BBDB
:10410000B0000020A8C64BBEE17A543F355E7ABFAE
:1041100068910DBFE17A54BF0AD7A33BBE9F7A3F97
:104120004ED111BC6F1203BC7B140EBF6F1203BBC8
:10413000A69B443C99BB16BB0AD7233B52499D3AE8
:1041400099BB163B355E7A3F6F12033C295C0FBF6B
:10415000BC74933B06220146492000F061BA10B5B9
:1041600030216A2000F094FA0A20FDF79BFA0D2115
:10417000242000F08DFA0A20FDF794FA0E21282061
:1041800000F086FA0A20FDF78DFA8E21312000F02A
:104190007FFA0A20FDF786FA01210B2000F07BF858
:1041A0000A20FDF77FFA002000F059F8102801D00E
:1041B000012010BD01210B2000F06DF80A20FDF751
:1041C00071FA00210A2000F066F80A2000F047F892
:1041D00008B1022010BD0A20FDF764FA00210B206F
:1041E00000F059F80B2000F03AF808B1032010BD98
:1041F0000A20FDF757FA2421412000F04CF8412015
:1042000000F02DF8242801D0042010BD0A20FDF76D
:1042100049FAC021422000F03EF8422000F01FF889
:10422000C02801D0052010BD0A20FDF73BFA00216F
:104230002A2000F02DFA0A20FDF734FA002134205C
:1042400000F026FA0A20FDF72DFA062203210E209F
:1042500000F022F96420FDF725FA002010BD10B50A
:104260000146322000F014FA0A20FDF71BFA8021E3
:10427000342000F00DFA0A20FDF714FA352000F082
:10428000A7F904460021342000F002FA0A20FDF7C5
:1042900009FA204610BD70B50D46044600212A20BB
:1042A00000F0F6F90220FDF7FDF92146292000F083
:1042B000EFF90220FDF7F6F92946642000F0E8F94D
:1042C0000220FDF7EFF981212A2000F0E1F9BDE895
:1042D00070400A20FDF7E6B9FDF724FBFEF77AFEF1
:1042E000FEF766FCFEF726FCFEF7E8FBFEF704FC93
:1042F000FEF7CEFCFEF7E8FCFEF7A8FCFEF708FD93
:10430000FCF7B0F908B172B6FEE7FCF7F7F908B1AF
:1043100072B6FEE700F00EF808B172B6FEE700F0E4
:104320003BF8FFF731FE00F0EBF9FEF729FC00F057
:10433000F9F9FEE730B585B06420FDF7B3F97520D3
:1043400000F046F912490024142288701149684689
:10435000FCF7B8F84FEA0D0505EB4400417815F875
:10436000140000F095F90120FDF79CF9641CE4B2FB
:104370000A2CF1D3032000F086F9022000F07EF928
:10438000FFF7EDFE00F0D0F805B0002030BD0000D2
:10439000B0000020D468000810B50E2239493B2037
:1043A00000F03EF9374800F10E04018849BA218037
:1043B000418849BA6180818849BAA180C18849BAD7
:1043C000A1810189628B49BA891AE1814189A28B55
:1043D00049BA891A21828089E18B40BA401A6082E9
:1043E0002948FFF7B7FE2849A4F142004C399FED58
:1043F000271ACA6C8264B1F85010A0F84C10D0F89B
:1044000042100160D0F846104160D0F84A10816037
:10441000B4F90C0000EE100AA4F14200F8EEC00A54
:1044200080EE810AF3EE050A30EE200A80ED030AE1
:10443000B4F90E1000EE101AF8EEC00A9FED140A3F
:1044400080EE801ADFED130AC1EE201AC0ED041AC7
:10445000B4F9101001EE101AF8EEC11A81EE801AAC
:10446000C1EE201AC0ED051AB4F9121001EE101AAF
:10447000F8EEC11A81EE801A81EE200A80ED060A5C
:1044800010BD00003C4F0020FC0000205CEFA64364
:104490006F1283413333654270B50E4604460146C0
:1044A0001546282000F0F4F80220FDF7FBF80A2159
:1044B000292000F0EDF80220FDF7F4F80121642036
:1044C00000F0E6F80220FDF7EDF844F08001252029
:1044D00000F0DEF80220FDF7E5F83146262000F076
:1044E000D7F80220FDF7DEF80321342000F0D0F8E1
:1044F0000220FDF7D7F80321672000F0C9F8022059
:10450000FDF7D0F881212A2000F0C2F80620FDF73F
:10451000C9F845F08001272000F0BAF8BDE87040E6
:104520000220FDF7BFB800002DE9F041274E00271B
:1045300006F10E044FF496750E2224493B2000F03C
:104540006FF83188A08A49BA0844A0827188E08A4D
:1045500049BA0844E082B188208B49BA08442083D4
:104560003189608B49BA084460837189A08B49BA4C
:104570000844A083B189E08B49BA0844E083052050
:10458000FDF790F87F1CAF42D6DBB4F9140090FB26
:10459000F5F0A082B4F9160090FBF5F0E082B4F9D2
:1045A000180090FBF5F02083B4F91A0090FBF5F0A9
:1045B0006083B4F91C0090FBF5F0A083B4F91E00F1
:1045C00090FBF5F0E083BDE8F08100003C4F002057
:1045D000F8B5104E0446002240213046FDF78EF912
:1045E00044F080000C4C3725621C20700123511EC2
:1045F0000A480095FDF7E6FD621C0123511E07489D
:104600000095FDF7DFFD012240213046FDF776F9E8
:104610006078F8BD00140240B00000206001002066
:10462000F8B5134F15460E46044600224021384681
:10463000FDF764F90F4944F08000372408705231C7
:10464000A1F151020870012352390B480094FDF783
:10465000B9FD08492B463246523107480094FDF710
:10466000B1FD012240213846FDF748F90020F8BD90
:1046700000140240B000002060010020C006010EBE
:104680001C2000F005B8C006010E1B20AFF300800F
:10469000F8B5114F0E460446002240213846FDF77A
:1046A0002DF904F07F000D4C3725621C207001238A
:1046B000511E0B480095FDF785FD2670621C0123F5
:1046C000511E07480095FDF77DFD01224021384627
:1046D000FDF714F90020F8BD00140240B0000020DE
:1046E0006001002010B5EFF3058111B16FF00504F2
:1046F00003E0002408B100F0F9FD204610BD0000E1
:10470000EFF3058010B16FF00500704704480168B1
:1047100011B14FF0FF307047012101600020704758
:104720006C00002010B5EFF3058010B16FF00500AC
:1047300010BD08480168012902D04FF0FF3010BDBC
:10474000054A002182F8141D0221016000F036FEA6
:10475000002010BD6C0000200BE000E02DE9FF41BF
:104760004FEA01034FF00005EFF30581039549BBC4
:1047700040B38027182100244AB3166806B1344696
:1047800096691EB13146761E382E02D21679F6078A
:1047900003D0002004B0BDE8F081566906B1B70827
:1047A000D2F808C0BCF1000F0DD0D5685C2D18D32D
:1047B00012693AB136B18DE806103A46214601F049
:1047C00096F903900DE0D6685EB912694AB903AA5A
:1047D000CDE90012BAB2214601F05CF9012800D0FF
:1047E00003950398D6E700002DE9F041134C0F46DE
:1047F0000546E6682068001D00F044FC681C07D1EF
:1048000037B12168BDE8F0410D48091D00F08ABCB0
:1048100020683544B5424560216805D2A06BBDE8EB
:10482000F041091D00F066BC606B091D00F062FCE0
:10483000A06A854200D2A562BDE8F0811C0000207C
:10484000400800202DE9F041054600F077FC2D4C92
:10485000A068401CA06020682B4F10B1606930B385
:104860002BE02560A068012827D1002606EB8600F2
:1048700007EB800000F030FC761C382EF6D323487E
:1048800000F02AFC2148143000F026FC1F48283094
:1048900000F022FC1D483C3000F01EFC1B4850304C
:1048A00000F01AFC194860631430A06305E020682A
:1048B000E96AC06A884200D82560606A401C60626C
:1048C0006864E86A2169884200D9206100EB8000B1
:1048D00007EB8000291D00F025FC00F04FFC60690B
:1048E00000280CD02068E96AC06A884207D20849CB
:1048F0004FF080500860BFF34F8FBFF36F8FBDE85C
:10490000F08100001C00002090030020F007002030
:1049100004ED00E038B500F011FC104C2068C8B977
:104920000F4800F0D9FB0E48143000F0D5FB0C48BE
:10493000E060143020610A4B0020F03B009003F14E
:10494000500210210A2000F047FE206010B105A19E
:1049500000F096FCBDE8384000F010BC5800002084
:1049600044090020546D72510000000030B4026C04
:104970000B46002A0BD0C1681144C1608468A14273
:1049800001D30168C16030BC1846FBF756BD30BC8E
:1049900070472DE9F041856B174604460026026CEE
:1049A00082B1C7B1E068FBF748FDE168206C091AE5
:1049B000E1602268914202D2A168081AE060022FE9
:1049C00016D017E02068A8B9A06801F033F90646B0
:1049D0000020A0600EE06068FBF72FFD216C60688E
:1049E00008446060A168884204D32068606001E0E8
:1049F00005B16D1E6D1CA5633046BDE8F08110B594
:104A0000044690F8590058B101280CD002280FD064
:104A1000502080F31188BFF34F8FBFF36F8FFEE7F5
:104A2000206B00F0BFFB2046BDE8104000F0BABB91
:104A300010BD000010484FF47051420706D0C01D51
:104A40000D4920F00700411AC1F570510B4A0023AF
:104A50000144C2E900030839183A21F00701116046
:104A60004B600B600B1AC0E9001393604FF00040DD
:104A7000536050617047000024100020880000201F
:104A8000144E154CA6F29C474FF08058DFF84C901E
:104A900012E000BF00F052FBF068C568281D00F06E
:104AA000F1FAA068401EA0606068401E606000F0DF
:104AB00065FB2846FFF7A3FF60680028EAD1386845
:104AC0000128F9D9C9F80080BFF34F8FBFF36F8F6A
:104AD000F2E700002C0800201C00002004ED00E09C
:104AE00070B51D46049C51B1C4F80020C4E90F0103
:104AF0000121204600F0A4FD84F84C5070BD2460D4
:104B0000F4E700002DE9F05F8846DDE90B941546D7
:104B1000834691009A460A9EA522206BFBF704FD6E
:104B20006FF00301206B01EB8501084420F00707BB
:104B3000780707D0502080F31188BFF34F8FBFF361
:104B40006F8FFEE70025B8F1000F0FD05FF0000077
:104B5000221818F8001082F8341018F8001011B15B
:104B6000401C1028F4D384F8435001E084F83450FA
:104B7000382E00D33726E662C4E91365201D00F005
:104B8000B6FA04F1180000F0B2FA2461C6F1380058
:104B90006462A061656584F85850524659463846AB
:104BA00000F05AFA2060B9F1000F01D0C9F80040B6
:104BB000BDE8F09F30B5114900E011460A68824215
:104BC000FBD34B685C18844203D1406818444860AA
:104BD000084643681C18944209D1084C183C2468C4
:104BE000A24209D052681A4442600A681268026000
:104BF000814200D0086030BD0460F9E788000020E1
:104C000070B5002441600B4D0061914206D8D11A65
:104C10008269914206D2011D286907E09A4203D2B7
:104C2000994201D3012403E0011DE86800F062FA13
:104C3000204670BD5800002010B5044600F07EFAF2
:104C4000A06B28B15FF0000400F098FA204610BD78
:104C50000124F9E730B589B03C4D6EE00498002896
:104C600006DADDE90601059A90470498002864DB1E
:104C7000069C606910B1201D00F004FA03A800F042
:104C8000D7F8024604980A2857D2DFE800F0050555
:104C9000052D334A05052D3394F8280040F0010016
:104CA00084F828000599A069059B01442046FFF778
:104CB000A7FF68B3216A2046884794F82800400778
:104CC0003BD5002000900598A169002342181946A1
:104CD000204601F0B9F8D8B9502080F31188BFF30D
:104CE0004F8FBFF36F8FFEE714F8280F20F00100FD
:104CF000207022E094F8280040F0010084F8280099
:104D00000598A06128B1811813462046FFF778FF67
:104D100013E0502080F31188BFF34F8FBFF36F8FE4
:104D2000FEE794F82800810703D4204600F03AFA01
:104D300003E020F0010084F82800002204A928687C
:104D400000F0D2FD002889D109B030BD5800002004
:104D50002DE9FC410F46054600F074FB01A800F068
:104D600067F80446019818B100F0DCFFBDE8FC814B
:104D7000254EAFB130690068D0B30027291B3A46F1
:104D8000306800F091FA00F0CDFF0028EED11F4905
:104D90004FF080500860BFF34F8FBFF36F8FE5E790
:104DA000A542EBD800F0BEFFF0682746C068C46893
:104DB000201D00F067F994F82800410719D5A06973
:104DC0002B4641193A462046FFF71AFFA8B10020AA
:104DD0000346014600902A46204601F035F860B9A6
:104DE000502080F31188BFF34F8FBFF36F8FFEE722
:104DF00007E020F0010084F82800216A2046884757
:104E0000B4E70127BAE700005800002004ED00E0F5
:104E10000648416B096829B1416BC968C96849688E
:104E2000816270474FF0FF31FAE700001C0000205C
:104E300070B5054600F094FE064E0446B068844204
:104E400003D200F009F8012000E00020286020468D
:104E5000B46070BD58000020F8B5194D20E0C0685E
:104E6000C4680668201D00F00DF9216A20468847B5
:104E700094F82800400713D5A0693044B04206D901
:104E800024616060211DE86800F034F908E000202A
:104E90000346014600903246204600F0D5FF38B167
:104EA000E86801680029DAD12969C5E90310F8BD6D
:104EB000502080F31188BFF34F8FBFF36F8FFEE751
:104EC0005800002008484068401C4FF0500080F314
:104ED000118804D0BFF34F8FBFF36F8FFEE7BFF38E
:104EE0004F8FBFF36F8FFEE790000020074CE06804
:104EF000016841B1C0680021D0F80000FFF728FF29
:104F0000FFF7A8FEF3E701210020F7E75800002093
:104F10002DE9F041044600F011F994F9455004F1EF
:104F2000240609E0606A48B1304600F0C3FE08B1CB
:104F300000F00AFA6D1E6DB2002DF3DC4FF0FF3663
:104F400084F8456000F01AF900F0F8F894F944503C
:104F500004F1100709E0206948B1384600F0AAFEC4
:104F600008B100F0F1F96D1E6DB2002DF3DC84F88C
:104F70004460BDE8F04100F001B900002DE9F041C6
:104F80000546002700F05EFA324E306808B9FFF798
:104F900051FD706905424ED1C5B3083568070ED082
:104FA00005F00700C0F108000544680707D050204D
:104FB00080F31188BFF34F8FBFF36F8FFEE72DB3E0
:104FC0007068854237D82348183001460C6801E0E4
:104FD00020460C466168A94202D221680029F7D117
:104FE00031688C4227D00768216801606068083703
:104FF000411B10290FD96019420708D0502080F3B7
:105000001188BFF34F8FBFF36F8FFEE713E041604E
:105010006560FFF7CFFD61687068401A7060B26824
:10502000904200D2B060706901430020C4E90001E1
:10503000F068401CF06000F075FE780707D0502043
:1050400080F31188BFF34F8FBFF36F8FFEE73846B1
:10505000BDE8F0817000002010B5031F4FF0807490
:105060001C601B1F21F001011960191F044B0B600C
:1050700014390A60091F6FF0020244380A6010BD3B
:10508000C54E0008D0E9013201699A60D0E90123D8
:105090005A604A68824201D182684A6000220261F5
:1050A0000868401E0860086870470000034B0360F2
:1050B00003F15C0008608020106070476C090020DC
:1050C000044B036003F15C0008604FF480701060D3
:1050D00070470000C80B002000F108014FF0FF32BC
:1050E000C0E90112C1600161002101607047002127
:1050F0000161704730B50B685A1C02D000F10802FC
:1051000002E0026904E02246546825689D42FAD90B
:1051100053684B6099608A60516008610168491C5E
:10512000016030BD42684A6093688B609368596043
:10513000916008610168491C01607047502080F34C
:105140001188BFF34F8FBFF36F8F0A494868401C27
:10515000486001280CD10848006810F0FF0F07D004
:10516000502080F31188BFF34F8FBFF36F8FFEE79E
:10517000704700009000002004ED00E008494868F6
:1051800028B1401E486001D180F31188704750203B
:1051900080F31188BFF34F8FBFF36F8FFEE70000DE
:1051A0009000002070B500282AD0164DA0F1080408
:1051B00060686969084207D1502080F31188BFF305
:1051C0004F8FBFF36F8FFEE722683AB1502080F314
:1051D0001188BFF34F8FBFF36F8FFEE78843606086
:1051E00000F030F960686968084468602046FFF79D
:1051F000E1FC2869401C2861BDE8704000F092BDC8
:1052000070BD0000700000204FF0E020002101611F
:10521000816105494FF47A720968B1FBF2F1491EC8
:1052200041610721016170471800002010B5FBF7AC
:1052300069F8114910280ED300F1E02090F8F0032E
:105240000A78904207D2502080F31188BFF34F8F25
:10525000BFF36F8FFEE709480068896800F4E060DB
:10526000884207D9502080F31188BFF34F8FBFF3D6
:105270006F8FFEE710BD0000900000200CED00E0F5
:1052800010B5084B002200BF53F832401CB1521C2D
:10529000082AF9D310BD43F8321003EBC20148606D
:1052A00010BD00005003002070B515460E460446A0
:1052B000FFF744FF94F944100020491C01D184F801
:1052C000440094F94510491C01D184F84500FFF7CA
:1052D00055FFA06B28B92A46314604F1240000F09E
:1052E00051F82046BDE87040FFF712BE10B502002D
:1052F00014D00F48006B38B1502080F31188BFF3F1
:105300004F8FBFF36F8FFEE700F09CF8002110462F
:10531000FFF76AFA00F006FD002807D105494FF0B3
:1053200080500860BFF34F8FBFF36F8F10BD000038
:105330001C00002004ED00E002490A6A0260C9680E
:10534000416070471C00002001490120C86170477E
:105350001C00002010B50C4650B1094909681831ED
:10536000FFF7C8FE2046BDE810400121FFF73CBA18
:10537000502080F31188BFF34F8FBFF36F8FFEE78C
:105380001C00002070B514460D4668B10A49096832
:105390001831FFF7C7FE0CB14FF0FF352146284604
:1053A000BDE87040FFF720BA502080F31188BFF3AA
:1053B0004F8FBFF36F8FFEE71C00002030B587B022
:1053C0000024039405AA04A903A80494FFF76EFE21
:1053D000DDE903010094CDE90110002315A1174870
:1053E000059A00F084FB164D0028E8621FD000F0FB
:1053F000FBFC012809D0401C19D1502080F31188F2
:10540000BFF34F8FBFF36F8FFEE7502080F31188FB
:10541000BFF34F8FBFF36F8F4FF0FF30A8620120B3
:105420006861EC6007B0BDE8304000F045B807B0F7
:1054300030BD000049444C4500000000814A00088E
:105440001C0000200248016B491C016370470000EA
:105450001C000020164810B5016B11B10121C1617B
:1054600010BD0021C1610169124A01E0B9B1491EB4
:1054700001EB810352F82330002BF7D001EB8103BD
:1054800002EB830202F1080453685B685360A34295
:1054900001D15B685360DA680260016110BD502081
:1054A00080F31188BFF34F8FBFF36F8FFEE70000CB
:1054B0001C000020900300201CB537480168374AC3
:1054C000914207D1502080F31188BFF34F8FBFF373
:1054D0006F8FFEE700683149491E884207D150208E
:1054E00080F31188BFF34F8FBFF36F8FFEE72C4916
:1054F00008780190FF20087008788DF800009DF86A
:1055000000009DF8002000F0F000904207D05020ED
:1055100080F31188BFF34F8FBFF36F8FFEE79DF8C5
:105520000000204C00F0500020700720A06005E033
:105530009DF8002052008DF80020401E9DF80020AC
:105540001206F5D4A060032807D0502080F31188FC
:10555000BFF34F8FBFF36F8FFEE74FF44070A06033
:10556000019808700C482030016841F47001016016
:10557000016841F070410160FFF746FE0020606065
:10558000FAF788FE0848016841F040410160FAF7E7
:105590006DFE00201CBD000000ED00E071C20F4157
:1055A00000E400E09000002034EF00E010B550204F
:1055B00080F31188BFF34F8FBFF36F8F00F0D6FADF
:1055C00018B104494FF080500860002080F3118822
:1055D00010BD000004ED00E038B5049D18B153B1D2
:1055E000CAB181B120E0502080F31188BFF34F8F02
:1055F000BFF36F8FFEE7502080F31188BFF34F8F0A
:10560000BFF36F8FFEE7502080F31188BFF34F8FF9
:10561000BFF36F8FFEE739B1502080F31188BFF3DD
:105620004F8FBFF36F8FFEE750241C46012384F891
:1056300046302B460094FFF753FA204638BD000051
:1056400070B50D46040025D0FFF778FDD4E90F2092
:10565000216802FB0011A1600021A1632168616043
:105660000A46D4E90F01401E00FB0121E1602146FA
:105670004FF0FF3001F8440F487004F110008DB175
:10568000FFF72AFD04F12400FFF726FDFFF776FD62
:10569000012070BD502080F31188BFF34F8FBFF3FE
:1056A0006F8FFEE721690029F0D000F003FB00288E
:1056B000ECD004494FF080500860BFF34F8FBFF328
:1056C0006F8FE3E704ED00E02DE9FF4782B01D4650
:1056D0008A464FF00008040003D0BAF1000F08D04A
:1056E00011E0502080F31188BFF34F8FBFF36F8F0D
:1056F000FEE7206C38B1502080F31188BFF34F8F44
:10570000BFF36F8FFEE7022D0AD1E06B012807D0AF
:10571000502080F31188BFF34F8FBFF36F8FFEE7E8
:1057200000F010FA3F4F4FF000094FF0805648B993
:10573000049838B1502080F31188BFF34F8FBFF326
:105740006F8FFEE7FFF7FAFCA06BE16B884207D38F
:10575000022D05D00498D0B1B8F1000F1AD01EE088
:105760002A4651462046FFF714F9616A19B104F13F
:10577000240000F09FFA20B13E60BFF34F8FBFF3CB
:105780006F8FFFF7FBFC012006B0BDE8F087FFF745
:10579000F5FC22E06846FFF7CFFD4FF00108FFF768
:1057A000EDFCFFF74FFEFFF7C9FC94F94400401CE5
:1057B00001D184F8449094F94500401C01D184F84B
:1057C0004590FFF7DBFC04A9684600F029F930B1E9
:1057D0002046FFF79DFB00F0A5FA0020D4E7FFF775
:1057E000ADFCA06BE16B884213D1FFF7C7FC04F15D
:1057F00010000499FFF7AEFD2046FFF789FB00F08B
:1058000091FA00289ED13E60BFF34F8FBFF36F8F98
:1058100098E7FFF7B3FC2046FFF77AFB00F082FA27
:1058200090E7000004ED00E02DE9F0471F469046A8
:105830008946040003D0B9F1000F08D011E05020D0
:1058400080F31188BFF34F8FBFF36F8FFEE7206C9B
:1058500038B1502080F31188BFF34F8FBFF36F8FA3
:10586000FEE7022F0AD1E06B012807D0502080F319
:105870001188BFF34F8FBFF36F8FFEE7FFF7D6FCA2
:105880005020EFF3118680F31188BFF34F8FBFF3E1
:105890006F8FA06BE16B884206D3022F04D00020EB
:1058A00086F31188BDE8F08794F94550A06B3A461D
:1058B00049462046FFF76DF8681C04D06D1C84F83B
:1058C00045500120ECE7606A0028FAD004F124007A
:1058D00000F0F0F90028F4D0B8F1000FF1D0012168
:1058E000C8F80010EDE700002DE9F747002683B067
:1058F0008A46040003D0BAF1000F08D011E050200E
:1059000080F31188BFF34F8FBFF36F8FFEE7206CDA
:1059100038B1502080F31188BFF34F8FBFF36F8FE2
:10592000FEE700F00FF9DFF8F4804FF000094FF0C8
:10593000805748B9059838B1502080F31188BFF3DB
:105940004F8FBFF36F8FFEE7FFF7F8FBA56BC5B175
:1059500051462046FFF70AF86D1EA563206950B135
:1059600004F1100000F0A6F928B1C8F80070BFF3E8
:105970004F8FBFF36F8FFFF701FC012006B0BDE82A
:10598000F087059808B11EB106E0FFF7F7FB27E0A6
:105990006846FFF7D1FC0126FFF7F0FBFFF752FD49
:1059A000FFF7CCFB94F94400401C01D184F84490EB
:1059B00094F94500401C01D184F84590FFF7DEFBC7
:1059C00005A9684600F02CF8002820460AD0FFF709
:1059D0009FFA00F0A7F92046FFF72EF90028B3D070
:1059E0000020CBE7FFF728F990B104F124000599D6
:1059F000FFF7B0FC2046FFF78BFA00F093F9002880
:105A0000A2D1C8F80070BFF34F8FBFF36F8F9BE731
:105A10002046FFF77DFA00F085F995E704ED00E0F8
:105A20002DE9F0410C46050011D0C4B1FFF786FB0B
:105A3000174BDA686E682068911B471C17D02F68D7
:105A40001B6A9F4219D0964217D8012410E05020BB
:105A500080F31188BFF34F8FBFF36F8FFEE75020A5
:105A600080F31188BFF34F8FBFF36F8FFEE70024E1
:105A7000FFF784FB2046BDE8F081884205D9401A33
:105A800020602846FFF758FCF1E700202060DCE7A3
:105A90001C0000202DE9FF5F8346DDE90E87994653
:105AA00016468A469000FFF769FA05001CD05C2074
:105AB000FFF764FA040014D00020256384F859002D
:105AC000CDE90240CDE900874B4632465146584663
:105AD000FFF718F82046FEF7B5FE012004B0BDE838
