:020000040800F2
:10000000F85600204D030008832F0008132D000828
:10001000812F0008A3060008C53800080000000072
:100020000000000000000000000000008D02000839
:10003000A109000800000000E902000835330008AB
:1000400067030008670300086703000867030008E8
:1000500067030008670300086703000867030008D8
:1000600067030008670300086703000867030008C8
:10007000E508000867030008670300086703000835
:1000800067030008670300086703000867030008A8
:100090006703000867030008670300086703000898
:1000A0006703000867030008670300086703000888
:1000B0006703000867030008670300086703000878
:1000C0006703000867030008670300086703000868
:1000D00067030008AD38000867030008B938000856
:1000E0006703000867030008670300086703000848
:1000F00067030008FD330008670300086703000872
:100100006703000867030008670300086703000827
:100110006703000867030008670300086703000817
:100120006703000867030008F10800086703000878
:100130006703000867030008670300082108000838
:10014000C907000867030008D5070008670300080F
:1001500067030008670300086703000867030008D7
:1001600067030008670300086703000867030008C7
:100170006703000867030008670300080000000029
:1001800067030008670300086703000867030008A7
:100190006703000867030008670300086703000897
:1001A00000000000000000006703000800F002F8F3
:1001B00000F05CF80AA090E8000C82448344AAF1A5
:1001C0000107DA4501D100F051F8AFF2090EBAE8A3
:1001D0000F0013F0010F18BFFB1A43F0010318477B
:1001E000F47F0000148000000A444FF0000C10F867
:1001F000013B13F0070408BF10F8014B1D1108BFA5
:1002000010F8015B641E05D010F8016B641E01F844
:10021000016BF9D113F0080F1EBF10F8014BAD1C94
:100220000C1B09D16D1E58BF01F801CBFAD505E0B2
:1002300014F8016B01F8016B6D1EF9D59142D6D30C
:10024000704700000023002400250026103A28BF34
:1002500078C1FBD8520728BF30C148BF0B60704738
:100260001FB507F02CFE1FBD10B510BD00F0E4F95E
:100270001146FFF7F5FF05F07DF900F002FA03B42F
:10028000FFF7F2FF03BC00F005FA00002C4B1968E1
:100290000868B0E8F04F80F30988BFF36F8F4FF024
:1002A000000080F3118870470000000008480068D3
:1002B000006880F308884FF0000080F3148862B66D
:1002C00061B6BFF34F8FBFF36F8F00DF00BF00BF7A
:1002D00008ED00E0DFF80C00016841F470010160F6
:1002E000704700BF88ED00E0EFF30980BFF36F8F28
:1002F000134B1A681EF0100F08BF20ED108A20E97A
:10030000F04F106009B44FF0500080F31188BFF334
:100310004F8FBFF36F8F06F021FA4FF0000080F38C
:10032000118809BC19680868B0E8F04F1EF0100F7A
:1003300008BFB0EC108A80F30988BFF36F8F704755
:1003400024000020EFF30580704700000948804733
:1003500009480047FEE7FEE7FEE7FEE7FEE7FEE7A7
:10036000FEE7FEE7FEE7FEE704480549054A064BBF
:1003700070470000ED330008AD010008F850002080
:10038000F8560020F8520020F852002053EA020CE0
:1003900000F069802DE9F04B4FF00006002B1FBFE5
:1003A000B3FA83F503FA05F424FA05F65E4012BFAA
:1003B0001643B2FA82F502FA05F4C5F120051EBF14
:1003C00022FA05FC44EA0C04203556EA044C4FEAB4
:1003D000144418BF641C4FF000084FF0000990420D
:1003E00071EB030C39D3002919BFB1FA81F701FA77
:1003F00007F6B0FA80F700FA07F6C7F120071EBF2C
:1004000020FA07FC46EA0C062037B6FBF4FCA7EB03
:100410000507103F07F01F0BCBF120060CFA0BFB72
:100420002CFA06F644BFB3460026202FA4BF5E4632
:100430004FF0000B5BEA060C08BF4FF0010B19EB05
:100440000B09ABFB027C48EB0608C01B06FB02CC89
:100450000BFB03CC71EB0C01C1E70B460246414696
:100460004846BDE8F08B13B54FF000004FF0000197
:10047000AFF30080BDE81C407047032A40F2308093
:1004800010F0030C00F0158011F8013BBCF1020FD5
:10049000624498BF11F801CB00F8013B38BF11F856
:1004A000013BA2F1040298BF00F801CB38BF00F86D
:1004B000013B11F0030300F02580083AC0F00880EA
:1004C00051F8043B083A51F804CBA0E80810F5E7CE
:1004D000121D5CBF51F8043B40F8043BAFF30080B1
:1004E000D20724BF11F8013B11F801CB48BF11F826
:1004F000012B24BF00F8013B00F801CB48BF00F8F6
:10050000012B704710B5203AC0F00B80B1E81850AD
:10051000203AA0E81850B1E81850A0E81850BFF4ED
:10052000F5AF5FEA027C24BFB1E81850A0E818508C
:1005300044BF18C918C0BDE810405FEA827C24BFE0
:1005400051F8043B40F8043B08BF7047D20728BF6E
:1005500031F8023B48BF11F8012B28BF20F8023BBD
:1005600048BF00F8012B704702F0FF0343EA032263
:1005700042EA024200F002B84FF000020429C0F043
:10058000128010F0030C00F01B80CCF1040CBCF1C5
:10059000020F18BF00F8012BA8BF20F8022BA1EB17
:1005A0000C0100F00DB85FEAC17C24BF00F8012BFC
:1005B00000F8012B48BF00F8012B70474FF00002F4
:1005C00000B5134694469646203922BFA0E80C5049
:1005D000A0E80C50B1F12001BFF4F7AF090728BF24
:1005E000A0E80C5048BF0CC05DF804EB890028BFA0
:1005F00040F8042B08BF704748BF20F8022B11F0C9
:10060000804F18BF00F8012B704770477047704744
:1006100010B500F009F8006810BD10B5044600F0F0
:1006200003F8046010BD000000487047945000209B
:1006300000487047945000207546FFF7F9FFAE461A
:1006400005006946534620F00700854618B020B5DE
:10065000FFF78AFEBDE820404FF000064FF000078C
:100660004FF000084FF0000B21F00701AC46ACE85A
:10067000C009ACE8C009ACE8C009ACE8C0098D46C7
:10068000704710B50446AFF300802046BDE8104027
:10069000FFF7F5BD01491820ABBEFEE726000200BA
:1006A0007047FEE700B58BB028216846FFF786FF4C
:1006B00000200121CDE906010590009001900290F3
:1006C000039004900E20CDE908100A4800F0AEF81F
:1006D0006946094800F0A2FB48B9074800F00EFF40
:1006E00028B90221044800F01FFB002800D0012097
:1006F0000BB000BDAC4C00209801002030B587B095
:100700000C46054618216846FFF758FF002306935C
:1007100084B1C5F30A00009002930820CDE90330AC
:100720008DF8143006AB22466946034800F00EFBF4
:1007300007B030BD0120FBE79801002000B58BB069
:1007400028216846FFF73AFF01220E210020079278
:10075000CDE9051003900490CDE9082100900190A7
:1007600002900A4800F062F86946094800F056FB1A
:1007700048B9074800F0C2FE28B90221044800F039
:10078000D3FA002800D001200BB000BDF04D0020AE
:10079000C001002010B50C0005D00146094800F04A
:1007A0004DF8002801DA002010BD064900EB80005A
:1007B00001EBC00124222046091DFFF7A3FE012002
:1007C00010BD0000F04D0020014800F03ABC0000D0
:1007D000C0010020014800F034BC0000C00100202E
:1007E00030B587B00C46054618216846FFF7E6FE8F
:1007F0000023069384B1C5F30A00009002930820F9
:10080000CDE903308DF8143006AB22466946034823
:1008100000F09CFA07B030BD0120FBE7C0010020CA
:10082000014800F00EBC0000C0010020002803D0E9
:100830004FF4A271FFF7C2BE7047000030B502004E
:100840004FF000004FF0FF340ED000BF00EB8003EC
:1008500012F8335025B102EBC3035B888B4204D0FE
:10086000401CC0B20828F1D3204630BD70B51646F2
:100870000D46040017D0002D15D0002E13D0A86807
:10088000002810D1288881B22046FFF7D7FF002822
:100890001ADA002000EB800214F8321021B1401C5B
:1008A000C0B20828F6D370BD0028FCDB00EB800145
:1008B000012204F8312004EBC1012A884A8094F80F
:1008C0004011491C84F8401100EB800004EBC00487
:1008D000201D1C222946FFF715FE30682062706833
:1008E000606270BD014800F097BE00003003002038
:1008F000014800F091BE0000D002002001681823DA
:10090000CAB2103AB2FBF3F2054B6FF30901032AA6
:100910009B5CC36500D9091D8165084670470000CE
:10092000647F000810B5014600208B698A6A4FF089
:10093000C07453B1B3F5005F15D072B1012A0CD069
:10094000022A0AD0032A09D104E01AB1012A06D0EA
:10095000022A03D1C96AC90100D5012010BDC96AA4
:10096000A142FAD010BD002AF7D0012AF2D0022A03
:10097000F3D0032AF3D010BD30B50468256825F400
:1009800080252560046863608368402B036803D07A
:1009900099600068C26030BD9A600068C16030BD77
:1009A000704772B6FEE7000010B528494FF4017099
:1009B000FFF7F0FE2548264C2449808BE08148391A
:1009C00040F20520FFF7E6FE204820494838243948
:1009D000808B608140F20620FFF7DCFE1B48243844
:1009E000808BA08102F0F0FA0146184814225C388E
:1009F000FFF743FD15485C380188B0F90A2011441F
:100A0000A288A1F58061514300EE101A04F138016B
:100A1000B8EEC00AD1ED030A30EE200A81ED030AD8
:100A20004188B0F90E0008442189A0F58060484350
:100A300000EE100A04F15800B8EEC00AD0ED030A27
:100A400030EE200A80ED030A10BD0000C84F0020E0
:100A5000A80000202DE9F04180462DED048B86B0E2
:100A600002F0B2FA014614226846FFF706FDAB4CCD
:100A70000027AB4D27806780A7809DF80800A61F40
:100A800002287DD196ED040B03F0D2FBBDF81200D5
:100A9000B0EE408AC0F1010101F00201084000EB14
:100AA000401000EB8000BDF8061005EB8000F0EE72
:100AB000608A084406F035FE53EC182B06F098FEC9
:100AC00041EC180B96ED040B03F042FBBDF812004D
:100AD000B0EE409A414201F00401084000EB4010A2
:100AE00000EB8000BDF8041005EB8000F0EE609A8A
:100AF000084406F016FE53EC192B06F079FE53EC71
:100B0000182B06F097FB06F0DDFD208096ED040B18
:100B100003F08EFBBDF81200B0EE408A414201F0B6
:100B20000401084000EB401000EB8000BDF8041009
:100B300005EB8000F0EE608A084406F0F2FD53EC0D
:100B4000182B06F055FE41EC180B96ED040B03F044
:100B5000FFFABDF81200B0EE409AC0F1010101F0B9
:100B60000201084000EB401000EB8000BDF80610C9
:100B700005EB8000F0EE609A084406F0D2FD00E03C
:100B80000CE053EC192B06F033FE53EC182B07F056
:100B90003BF806F097FD60807088A0809DF8080003
:100BA00001287DD196ED040B03F042FBBDF8120045
:100BB000B0EE408AC0F1010101F00201084000EBF3
:100BC000401000EB8000BDF8061005EB8000F0EE51
:100BD000608A084406F0A5FD53EC182B06F008FEC9
:100BE00041EC180B96ED040B03F0B2FABDF81200BD
:100BF000B0EE409A414201F00401084000EB401081
:100C000000EB8000BDF8041005EB8000F0EE609A68
:100C1000084406F086FD53EC192B06F0E9FD53EC71
:100C2000182B06F007FB06F04DFD208096ED040B17
:100C300003F0FEFABDF81200B0EE408A414201F026
:100C40000401084000EB401000EB8000BDF80410E8
:100C500005EB8000F0EE608A084406F062FD53EC7C
:100C6000182B06F0C5FD41EC180B96ED040B03F0B4
:100C70006FFABDF81200B0EE409AC0F1010101F028
:100C80000201084000EB401000EB8000BDF80610A8
:100C900005EB8000F0EE609A084406F042FD00E0AB
:100CA0001AE053EC192B06F0A3FD53EC182B06F0B9
:100CB000ABFF06F007FD608096ED040B51EC100BC6
:100CC00006F086FA00EE100A164802F05BF9BDEE57
:100CD000C00A10EE100AA08063882188A2885818E4
:100CE0008518B4883846654365F30F00CD1A15445E
:100CF000654365F31F405D1A154465431944511A55
:100D000065F30F07614361F31F47C8F80000C8F897
:100D1000047006B0BDEC048BBDE8F0812601002014
:100D200000FCFFFFEC4F002090F82020012A07D0A4
:100D3000022A05D0416A41F48021416201207047B6
:100D4000006842690A43426100207047F0B590F89C
:100D500020500468A468012D05D0022D03D0416AFB
:100D600041F4802157E014F0406F01D1E5004FD5E8
:100D7000C4F301640125A5401D608D684FF4C07364
:100D80009DB1CE6835434E6845EAC605066803EB5B
:100D90000417F5514FF4C275076805EB04150E6989
:100DA0007E51097D012905D009E00E88CD6845EA0C
:100DB0004655EBE701684E5946F480764E5111795D
:100DC000D579567941EA056195792D0445EA0625DC
:100DD00029434FF4C676056806EB0416A95111782D
:100DE000D57841EA0561957852782D0445EA0222CA
:100DF00011434FF4C475026805EB041551510068A6
:100E000003EB0411425842F0010242500020F0BDB1
:100E1000416A41F4001141620120F0BD10B590F823
:100E20002020012A07D0022A05D0416A41F48021FE
:100E30004162012010BD3B48D0F8002242F001027F
:100E4000C0F80022D0F8002222F47C52C0F8002220
:100E5000D0F800224B6A42EA0322C0F800220A7D41
:100E600002F01F0301229A40D0F81C329343C0F8CD
:100E70001C32CB69B3B9D0F80C329343C0F80C32B2
:100E80008C894B6864F31F434C6900EBC404C4F8BD
:100E900040320C890B6864F31F434C6900EBC404B7
:100EA000C4F84432CB69012B16D1D0F80C3213436D
:100EB000C0F80C320C884B6864F31F434C6900EB9C
:100EC000C404C4F840320C89CB6864F31F434C69F6
:100ED00000EBC404C4F844328B69002BD0F8043210
:100EE0000ED01343C0F804320B69002BD0F8143233
:100EF00008D01343C0F81432096A012904D008E06D
:100F00009343EFE79343F5E7D0F81C121143C0F881
:100F10001C12D0F8001221F00101C0F800120020CC
:100F200010BD000000640040704700000246002031
:100F300092F82030012B01D0022B05D1106821B18D
:100F4000D0F8100000F003007047C068FAE770B5F1
:100F500090F82040012C05D0022C03D0416A41F4C6
:100F6000802128E0046809B32469A40720D04FF445
:100F7000D874056804EB01142D5915F0040595602B
:100F800005682D591AD0ED08556005682C5904F0F4
:100F90000204D4604FF4DA74056804EB01142E598E
:100FA00006F00F06082E0CD308250DE0E468DCE7F8
:100FB000416A41F400114162012070BD6D0D156060
:100FC000E3E72D5905F00F05156105682D59C5F3A7
:100FD0000725956105682C59240C54614FF4DC7287
:100FE000046802EB0112A4581C700468A458240A77
:100FF0005C700468A458240C9C700468A258120EFB
:10100000DA704FF4DE72046802EB0112A4581C710E
:101010000468A458240A5C710468A458240C9C71C8
:101020000468A258120EDA71006829B1016941F012
:1010300020010161002070BDC16841F02001C16044
:10104000F8E72DE9F05F0546006800244669D0F80E
:1010500004908768D0F80CB0D0F810A0D0F81880B1
:10106000F10748D0F90714D001218160B80703D5F2
:10107000284600F070FA0CE0780702D54FF40064BF
:1010800007E0380702D54FF4805402E0284600F00C
:1010900061FAF80516D529684FF480708860B805A4
:1010A00003D5284600F059FA0CE0780502D544F43F
:1010B000005407E0380502D544F4804402E0284695
:1010C00000F04AFAF80316D529684FF4803088609A
:1010D000B80303D5284600F042FA0CE0780302D5A5
:1010E00044F4004407E0380302D544F4803402E0BD
:1010F000284600F033FA300707D55FEACB6004D505
:101100002968102044F40074C86070074FF0080785
:1011100007D55FEA0B7004D52868C760284600F041
:10112000BBF9B00706D52868C068800702D02846FA
:1011300000F0B4F9700607D55FEACA6004D52968E3
:10114000102044F480640861B00607D55FEA0A7095
:1011500004D528680761284600F0CCF9F00606D5CA
:1011600028680069800702D0284600F0C4F9B0035F
:1011700008D55FEAC96005D529681020486028466F
:1011800000F0BAF9F00307D55FEA097004D52868C2
:101190004760284600F0E4F9300446D55FEA49701C
:1011A00040D5F00504D55FEAC87001D044F00104D1
:1011B000B00504D55FEA887001D544F002047005DB
:1011C00004D55FEA487001D544F00404300529D500
:1011D00018F0700F26D008F07000402815D006DCFB
:1011E000102809D020280AD0302816D10AE050282B
:1011F0000ED0602811D10EE044F008040DE044F058
:1012000010040AE044F0200407E044F0400404E045
:1012100044F0800401E044F480742868816921F07E
:1012200070018161296804204860002C05D0686A3B
:10123000204368622846FFF777FEBDE8F09F70B54F
:10124000040003D094F8200010B104E0012070BD28
:10125000204600F081F82068016841F0010101603A
:1012600000F07EFC0546052604E000F079FC401BFA
:101270000A2811D820684068C007F6D020680168A5
:1012800021F00201016000F06BFC05460BE000F06C
:1012900067FC401B0A2806D9606A40F4003060628F
:1012A00084F82060D2E7206840688007EFD4207E71
:1012B0000128206801683DD021F080010160607E36
:1012C00001282068016838D021F040010160A07E2B
:1012D00001282068016833D021F020010160E07E00
:1012E0000128206801682ED041F010010160207FA4
:1012F00001282068016829D021F008010160607F81
:1013000001282068016824D021F004010160D4E99B
:1013100002010843D4E90412114308436168491EDD
:1013200008432168C86100206062012084F8200021
:10133000002070BD41F08001C0E741F04001C5E7E9
:1013400041F02001CAE721F01001CFE741F0080188
:10135000D4E741F00401D9E72DE9F04387B0044612
:1013600014216846FFF72AF9464B474ADFF81081F7
:101370001968D4F800C04448022503260927DFF87D
:101380000C9110320024491CC44531D11960012947
:1013900007D1116841F000711160116801F000710E
:1013A0000591016841F002010160016801F002014C
:1013B0000591016841F008010160006802AA00F08F
:1013C000080005904FF48070CDE9000582E8D00058
:1013D0006946484600F0A4FA02AA0095019582E801
:1013E000D00069462A4800F09BFA07B0BDE8F083B8
:1013F000DFF8A080C445F8D1D2F800C04CF0806C72
:10140000C2F800C0D2F800C001290CF0806CCDF801
:1014100014C0196007D1116841F0007111601168A2
:1014200001F000710591016841F00201016000685E
:1014300002AA00F00200059042F22000CDE900056A
:1014400082E8D0006946484600F06AFA0022052189
:101450003F2000F023FC3F2000F012FC0022052179
:10146000402000F01BFC402000F00AFC0022052177
:10147000422000F013FC422000F002FCB5E700001F
:101480000064004010000020303802400004024098
:10149000000C0240006800407047000030B589B081
:1014A00004001DD00F492068884201D10E4D11E083
:1014B0000E49884214D10E4D0CE007AB6A4600215C
:1014C0002046FFF744FD00280AD107AA69462846AE
:1014D000FFF7CCF900212046FFF728FD0028ECD1CA
:1014E00009B030BD00640040AC4C002000680040F2
:1014F000F04D0020704770477047000070B50446FB
:1015000090F82000012804D0606A40F40020606256
:1015100018E0022084F820002068016821F0010111
:10152000016000F01DFB05460EE000BF00F018FB57
:10153000401B0A2808D9606A40F400306062052028
:1015400084F82000012070BD20684068C007EDD1FC
:10155000606270BD70477047704770477047704752
:1015600070472DE9F0410446876D00F0F9FA064610
:1015700094F835000025022806D08020606584F8A4
:1015800034500120BDE8F0812068016821F0160187
:1015900001602068416921F080014161206C08B937
:1015A000A06C20B12068016821F00801016020686A
:1015B000016821F0010101600CE000F0D1FA801B0C
:1015C000052807D920206065032084F8350084F8B9
:1015D0003450D7E720680068C007EED194F85C105B
:1015E0003F208840B860012084F8350084F83450EA
:1015F0000020C7E790F83510022903D0802141650B
:1016000001207047052180F835100068016821F03D
:1016100001010160002070472DE9F84304464FF0B6
:101620000009CDF8009063484FF41651A56D00688D
:10163000B0FBF1F72E6894F85C10082000FA01F175
:1016400031420FD021680A6852070BD50A6822F090
:1016500004020A6094F85C108840A860606D40F055
:101660000100606594F85C104FF0010808FA01F081
:10167000304208D021684969090604D5A860606D28
:1016800040F00200606594F85C100420884030420D
:1016900008D021680968890704D5A860606D40F00A
:1016A0000400606594F85C1010208840304218D027
:1016B00021680968090714D5A860206801684903F2
:1016C00004D50068000308D5A16C07E00168C905CE
:1016D00003D4016821F008010160216C09B12046A2
:1016E000884794F85C1020208840304231D021682F
:1016F0000968C9062DD5A86094F83500052820682A
:10170000016806D0490347D5006800031DD4616C09
:101710001CE021F0160101602068416921F0800180
:101720004161206C08B9A06C20B12068016821F0EB
:101730000801016094F85C103F208840A86084F89C
:10174000358084F83490216D1FE0E16B09B12046AB
:101750008847606D00282BD0606DC00714D005202D
:1017600084F835002068016821F0010101600098CB
:10177000401C0090B84203D820680068C007F6D12A
:1017800084F8358084F83490E16C002910D001B0E1
:101790002046BDE8F04308470168C905D5D4016873
:1017A00021F01001016084F8358084F83490CCE792
:1017B000BDE8F883200000202DE9F041044600F048
:1017C000CFF906465CB1022084F83500002584F884
:1017D00034502068016821F0010101600DE0012012
:1017E000BDE8F08100F0BCF9801B052805D9202058
:1017F0006065032084F83500F2E720680068C007C0
:10180000F0D12268116820480140D4E9010318434F
:10181000D4E903363343184363691843A369184373
:10182000E3691843236A18430843616A042903D112
:10183000D4E90B1319430843106020684069666AB5
:1018400020F0070130460E43012704280CD1A06A7E
:101850000643E06A40B12046FFF764F820B140201B
:10186000606584F83570BAE7206846612046FFF766
:1018700045F894F85C203F2191408160656584F8CB
:1018800035700020ACE700003F8010F02DE9F041FA
:101890000446866D90F83400002501280DD0012003
:1018A00084F8340094F835700020012F07D084F8B4
:1018B000340002252846BDE8F0810220FBE702271C
:1018C00084F8357060652046FFF756F894F85C1090
:1018D0003F208840B0602068016841F01601016037
:1018E000206C20B12068016841F008010160206887
:1018F000016841F001010160DCE7000070B50446B9
:1019000000F02EF90546601C02D00448007804441B
:1019100000F026F9401BA042FAD370BD140000204D
:101920002DE9F84FDFF8F8A10022012403254FF03C
:101930000F090AF1040BAAF1040E00BF0B6804FAA8
:1019400002F63340B34270D10F7907F00307012F3D
:1019500001D0022F16D187684FEA420805FA08FC29
:1019600027EA0C07D1F80CC00CFA08FC4CEA070C6B
:10197000C0F808C04768B7430E79C6F30016964012
:101980003E4346600E79F643B6070AD0C7684FEA71
:10199000420C05FA0CF6B7438E6806FA0CF63E4385
:1019A000C6600E7906F00306022E10D1D60800EBB1
:1019B0008608D8F8206057074FEAD76C09FA0CF769
:1019C000BE430F6907FA0CF73743C8F82070066862
:1019D0004FEA420C05FA0CF7BE430F7907F00307F4
:1019E00007FA0CF7374307604E6816F4403F1CD0E7
:1019F0004C4E376847F480473760366822F003075B
:101A000006F480460096484E07EB060CDCF80868A2
:101A100097073F0F09FA07F826EA0806DFF80C8156
:101A2000404503D14FF0000841E072E0DFF800814B
:101A3000404502D14FF0010839E0DFF8F880404519
:101A400002D14FF0020832E0DFF8EC80404502D1CD
:101A50004FF003082BE0DFF8E480404502D14FF05F
:101A6000040824E0DFF8D880404502D14FF0050893
:101A70001DE0DFF8D080404502D14FF0060816E0A7
:101A8000DFF8C480404502D14FF007080FE0DFF8CF
:101A9000BC80404502D14FF0080808E0DFF8B08074
:101AA000404502D14FF0090801E04FF00A0808FA5A
:101AB00007F848EA0608CCF80888DAF800605746C4
:101AC000D1F804C09E435FEACC2C00D51E433E6093
:101AD000DBF800605F46D1F804C09E435FEA8C2CBF
:101AE00000D51E433E60DEF800607746D1F804C0A2
:101AF0009E435FEA8C3C00D51E433E60084F083F82
:101B00003E68D1F804C09E435FEACC3C00D51E433A
:101B10003E60521C102AFFF411AFBDE8F88F0000A0
:101B2000083C0140443802400030014000000240BF
:101B30000004024000080240000C02400010024075
:101B40000014024000180240001C02400020024025
:101B5000002402400AB1816170470904FBE70000DC
:101B60000148806870470000140000200248816826
:101B70000278114481607047140000200B4810B5B2
:101B8000016841F400710160016841F48061016005
:101B9000016841F480710160032000F09FF80F207C
:101BA00000F006F800F050F8002010BD003C0240A4
:101BB00030B505461F4887B00024016841F48071A4
:101BC0000160006806A900F48070009001A800F090
:101BD00069F90498A8B100F085F940001649174A40
:101BE000B0FBF1F11648491E026040F2E732C0E94D
:101BF0000324C0E90114846100F00AFD040003D04D
:101C000015E000F06FF9E9E70D4800F02FFD040042
:101C10000DD12D2000F034F8102D07D200222946D6
:101C20002D2000F03BF80748056000E0012407B0D4
:101C3000204630BD4038024040420F0000200040A6
:101C400090030020180000200C4882B0016841F485
:101C500080410160006800F4804000900748001F48
:101C6000016841F0805101600068002200F080505E
:101C700000900F21901E02B000F010B844380240CE
:101C8000002809DB00F01F0201219140400980007B
:101C900000F1E020C0F8001170470000F0B40E4BD6
:101CA0001B680C46C3F30223C3F10705042D00D9BA
:101CB0000425191D072901D2002300E0DB1E01269F
:101CC00006FA05F1491E214099409E40761E1640B5
:101CD0003143F0BC01F00FBE0CED00E0064900F00E
:101CE000070208684FF6FF03184040EA0220034A43
:101CF00010430860704700000CED00E00000FA059A
:101D00002DE9F8431748016841F0805101600068EF
:101D1000154F00F08050012600903E64FFF720FF31
:101D200005464FF47A78114C05E000BFFFF718FF25
:101D3000401B40450DD86068C003F7D57E64FFF7AF
:101D40000FFF0546464607E0FFF70AFF401BB0427B
:101D500002D90320BDE8F88360688003F4D5002031
:101D6000F8E700004038024000000E4200700040DA
:101D70002DE9F0470E46050065D0DFF81481D8F84C
:101D80000000F7B200F00F00B04207D288F80070F0
:101D9000D8F8000000F00F00B04254D128683D4C44
:101DA000810712D5400703D5206840F4E050206039
:101DB0002878000703D5206840F460402060206840
:101DC000A96820F0F000084320602878C0072DD0D3
:101DD000304968680839012812D0022813D0032836
:101DE00011D00968890700292DDA216821F0030143
:101DF00001432160FFF7B4FE814641F2883A0EE0CC
:101E000009688903EFE709688901ECE7FFF7A8FE95
:101E1000A0EB0901514502D90320BDE8F0872068F5
:101E2000696800F00C00B0EB810FEFD1D8F800101A
:101E3000404601F00F01B14207D90770006800F079
:101E40000F00B04201D00120E7E72878400705D510
:101E50002068E96820F4E0500843206028780007F3
:101E600006D52068296920F4604040EAC10020605E
:101E700000F058F82168084AC1F30311515CC840CA
:101E80000649086006480068FFF792FE0020C4E794
:101E9000003C0240083802406C7F0008200000200F
:101EA000180000200F2202600C4A136803F003039D
:101EB0004360136803F0F0038360136803F4E05396
:101EC000C36012684FF4E05303EAD202026104488F
:101ED000006800F00F0008607047000008380240FA
:101EE000003C02400448054900680968044AC1F3FF
:101EF0008221515CC8407047200000200838024011
:101F00007C7F00080448054900680968044AC1F359
:101F10004231515CC8407047200000200838024020
:101F20007C7F0008154810B5006810F00C021448BA
:101F300013D01449042A0FD0082A0ED10F4C241FA5
:101F40002268236802F03F025B0207D52068C0F3D5
:101F50008810A0FB010106E0084610BD2168C1F30E
:101F60008811A1FB00010023FEF710FA2168C1F3DC
:101F70000141491C4900B0FBF1F010BD0838024096
:101F80000024F40040787D012DE9F84F04006ED064
:101F90002078DFF84C93C007A9F104054AD009F175
:101FA00004000168C1F38101012908D00068C0F371
:101FB000810002280AD1D9F80000400206D528681D
:101FC000800337D560680028E1D033E06068B0F561
:101FD000803F10D0B0F5A02F286810D020F48030BA
:101FE0002860286820F4802028606068A8B1FFF786
:101FF000B7FD06460DE0286840F48030F4E740F471
:1020000080202860F7E700BFFFF7AAFD801B642847
:1020100073D828688003F7D50CE0FFF7A1FD0646CA
:1020200005E000BFFFF79CFD801B6428F0D82868FE
:102030008003F7D42078DFF8AC8280074FF0000AE5
:102040003ED5A748001D016811F00C0F08D00068AC
:10205000C0F3810002280BD1D9F80000400207D458
:102060002868800716D5E068012800D112E033E126
:10207000E068B8B10120C8F80000FFF771FD06461E
:1020800005E000BFFFF76CFD801B0228C0D8286860
:102090008007F7D52868216920F0F80040EAC100E0
:1020A00028600DE0C8F800A0FFF75AFD064604E0DE
:1020B000FFF756FD801B02281FD828688007F7D439
:1020C0002078000722D5864F87486169703771B143
:1020D00001210160FFF744FD064604E0FFF740FDE3
:1020E000801B022809D838688007F7D50EE0C0F8B1
:1020F00000A0FFF735FD064605E082E0FFF730FD62
:10210000801B02287DD838688007F7D420784007E4
:1021100068D5DFF8CCB100270BF13C0BDBF80000F1
:10212000C0000BD4DBF8001041F08051CBF8001058
:10213000DBF80000012700F0805000906B4E306803
:10214000C00510D4306840F480703060FFF708FD9F
:10215000009005E0FFF704FD0099401A022850D8CE
:102160003068C005F6D55E4EA0686C3601280FD0E9
:102170000528306810D020F001003060306820F071
:1021800004003060A068B8B1FFF7EAFC00900FE0EF
:10219000306840F00100F4E740F004003060F7E7F9
:1021A000FFF7DEFC0099411A41F28830814266D87F
:1021B00030688007F4D50EE0FFF7D2FC009007E00E
:1021C000FFF7CEFC0099411A41F28830814256D87F
:1021D00030688007F4D42FB1DBF8001021F0805173
:1021E000CBF80010A069C8B33D49091D0968C1F3C7
:1021F000810102294AD00228504607D0C8F8600061
:1022000000E03CE0FFF7ACFC04463BE04746C8F882
:102210006000FFF7A5FC064605E000BFFFF7A0FC45
:10222000801B02282BD828688001F7D4D4E9070145
:102230000843A16A2E4A490802EB0141626A41EA59
:102240008211084394F82C1040EA0161C9F800108B
:1022500001203866FFF784FC044606E03EE000BF3C
:10226000FFF77EFC001B022809D828688001F7D5FB
:1022700034E000BFFFF774FC001B022802D90320E2
:10228000BDE8F88F28688001F4D427E00128F7D052
:10229000D9F80000E26900F4800191421CD1226A61
:1022A00000F03F01914217D147F6C071626A0140C8
:1022B000B1EB821F10D1A26A4FF0FF3300F440311E
:1022C00003EB5202B1EB024F06D194F82C1000F050
:1022D0007060B0EB016F01D00120D1E70020CFE7A3
:1022E0000438024000004742800E47420070004020
:1022F0000000FFFF70B5040009D0606A002540B1FE
:1023000025616561A56294F8510040B10CE001209F
:1023100070BD6068B0F5827FF4D0E561F2E784F8C3
:102320005050204600F044F8022084F85100206804
:10233000016821F040010160A088218900F48270C9
:1023400001F404410843A18901F400610843217CA0
:1023500001F002010843217D01F001010843218BB6
:1023600001F400710843217F01F03801084394F81B
:10237000201001F080010843218D01F40051084331
:1023800021680860A069042101EA104094F8241033
:1023900001F010010843216848602068C16921F4F8
:1023A0000061C1616565012084F85100002070BDA5
:1023B00010B586B0044614216846FEF7FFF81449AC
:1023C0002068884221D113480021026842F480121B
:1023D0000260006800F4801005900E48143802680E
:1023E00042F020020260006800F0200005904FF4E7
:1023F000607000900220CDE90101032003900520C8
:10240000049069460448FFF78BFA06B010BD00003F
:102410000050014044380240001402402DE9FF4FB3
:1024200081B01D46934604464FF001090E9EFFF70A
:1024300097FB074694F851006168012806D0B1F572
:10244000827F3CD1A168C9BB042838D102980028FA
:1024500071D0BBF1000FFBD0002DF9D094F85000E3
:1024600001282CD04FF0010A84F850A094F85100B4
:10247000042802D0052084F851004FF00008C4F869
:102480005480C4F838B0E587A58702992163E586B2
:10249000A586C4F84080C4F84480206801684906D5
:1024A00003D4016841F040010160E068B0F5006FBD
:1024B000606808D0F0B3012D49D081E0FFE7022029
:1024C00005B0BDE8F08F08B1012D39D1206B21682E
:1024D0000088C860206B801C2063E08E401EE08670
:1024E0002EE02068816889070FD5E18E69B1B9F1C6
:1024F000010F0AD1216B0988C160206B801C206309
:10250000E08E401EE0864FF0000920688168C90710
:102510000CD0E18F51B1C068A16B0880A06B801C0A
:10252000A063E08F401EE0874FF00109FFF718FB22
:10253000C01B01E00BE067E0B04201D3701C50D13A
:10254000E08E0028CDD1E08F0028CAD13EE0206B7C
:10255000216800780873206B401C2063E08E401EC9
:10256000E0862DE02068816889070FD5E18E69B18A
:10257000B9F1010F0AD1216B09780173206B401C5E
:102580002063E08E401EE0864FF0000920688168DD
:10259000C9070CD0E18F51B1C068A16B0870A06B66
:1025A000401CA063E08F401EE0874FF00109FFF759
:1025B000D7FAC01BB04202D3701C01D011E086B123
:1025C000E08E0028CED1E08F0028CBD13A463146AC
:1025D000204600F059FD50B12020606584F85080FD
:1025E00012E084F851A084F85080032068E7A068C6
:1025F00018B92068C1688068009084F851A084F8F8
:102600005080606D0028F1D0012059E77047704775
:1026100010B5040003D094F83D0010B107E001208C
:1026200010BD002084F83C00204600F01EF8022077
:1026300084F83D00211D206800F0E6FE012084F8AA
:10264000460084F83E0084F83F0084F8400084F897
:10265000410084F8420084F8430084F8440084F880
:10266000450084F83D00002010BD704790F83D10F3
:10267000012901D001207047022180F83D10016836
:10268000CA6842F00102CA6000681149884214D049
:10269000B0F1804F11D00F4988420ED00E498842C8
:1026A0000BD00E49884208D00D49884205D00D490B
:1026B000884202D00C49884204D1816801F00701A8
:1026C000062903D0016841F0010101600020704734
:1026D000000001400004004000080040000C0040E1
:1026E00000040140004001400018004070472DE9FF
:1026F000F04104460068C66805694FF00007A90765
:1027000013D5B10711D5F91E01610120207720688A
:1027100080698007204602D0FFF7E8FF04E000F060
:102720007EF8204600F07CF82777680716D57007FA
:1027300014D521686FF0040008610220207720681A
:10274000806910F4407F204602D0FFF7CFFF04E0FD
:1027500000F065F8204600F063F82777280715D5C4
:10276000300713D521686FF0080008610420207736
:102770002068C0698007204602D0FFF7B7FF04E059
:1027800000F04DF8204600F04BF82777E80616D504
:10279000F00614D521686FF010000861082020773A
:1027A0002068C06910F4407F204602D0FFF79EFFEA
:1027B00004E000F034F8204600F032F82777E8070C
:1027C00008D0F00706D021686FF0010008612046AC
:1027D00000F028F8280608D5300606D521686FF0E5
:1027E000800008612046FFF711FF680608D57006D3
:1027F00006D521686FF040000861204600F01CF803
:10280000A8060AD5B00608D521686FF02000086137
:102810002046BDE8F041FFF7FABEBDE8F081704701
:102820007047000000680349884201D1FFF79EB954
:102830007047000000200040704738B5044690F80B
:102840004200202801D0022038BD51B14AB10120F8
:10285000206300206063204600F0D8FF216B01292F
:1028600001D0012038BD21680A68496800912168BB
:102870000C3151E8002F42F0100241E80023002BF8
:10288000F5D138BD70B5002823D00068114A9042B8
:102890001FD1114C114D1229207805D100EBC00039
:1028A00005EB400000F0B8FB2078122280F0010018
:1028B000207000EBC00005EB40010948FFF7BDFFA9
:1028C0000748C06B002804D00068016821F00801A7
:1028D000016070BD00480040A4000020344F00207B
:1028E0008802002070470000F8B5016804460868B7
:1028F000CA684B6910F00F0F4FF0000559D003F074
:10290000010602F49077374365D0C10705D0D105A1
:1029100003D5616C41F001016164410705D5D90718
:1029200003D0616C41F002016164810705D5D907CC
:1029300003D0616C41F004016164010707D502F026
:102940002001314303D0616C41F008016164616C86
:1029500000293AD0800604D5900602D5204600F022
:102960006EFE20684069616CC0F38010090700D4D6
:1029700060B3204600F02EFE20684069400621D555
:102980002068143050E8001F21F0400140E8001298
:10299000002AF5D1E06BA8B172490165E06BFEF742
:1029A00029FE002811D0E06B016D01B0BDE8F040B8
:1029B000084783060FD593060DD52046BDE8F8409D
:1029C00000F03DBE2046FFF78DFFF8BD2046FFF723
:1029D00089FF6564F8BD266B2023012E7ED1C606D3
:1029E0007CD5D6067AD508684868009048694FF0CB
:1029F000020640064DD5E26B106840684FF48077C0
:102A00000004000C3AD0A18D814237D9E085D0690D
:102A1000B8422DD020680C3050E8001F21F480719E
:102A200040E80012002AF5D12068143050E8001F59
:102A300021F0010140E80012002AF5D1206814308D
:102A400050E8001F21F0400140E80012002AF5D1B3
:102A500084F84230256320680C3050E8001F21F0D4
:102A6000100140E80012002AF5D1E06BFEF779FD75
:102A70006663A08DE18D401A81B206E0A18D81428E
:102A8000A8D1D069B842A5D166632046FFF7FAFE07
:102A9000F8BDA08DE18D401A81B2E08D0028F7D0FD
:102AA0000029F5D020680C3050E8002F22F49072F5
:102AB00040E80027002FF5D12068143050E8002F9F
:102AC00022F0010240E80027002FF5D184F84230BF
:102AD000256320680C3050E8002F00E006E022F06B
:102AE000100240E80023002BF3D1CDE705062BD5DB
:102AF000150629D594F841002128C9D1A068B0F560
:102B0000805F01D12069B0B1206A411C2162216837
:102B100000784860E08C401E0004000CE084B7D1CF
:102B20002068C16821F08001C1602068C16841F05F
:102B30004001C160F8BD206A0088C0F30800486009
:102B4000206A801C2062E5E74006F3D55006F1D5E7
:102B5000CA68204622F04002CA6084F8413000F082
:102B6000D7F8F8BDD934000870B5040004D094F843
:102B70004100002510B106E0012070BD84F84050EE
:102B8000204600F023F8242084F841002068C16822
:102B900021F40051C160204600F0B2FD20680169B7
:102BA00021F4904101612068416921F02A014161CD
:102BB0002068C16841F40051C1606564202084F838
:102BC000410084F842006563002070BD2DE9F041AA
:102BD00086B0064614216846FDF7F0FCDFF80CC10C
:102BE00002223168002442480323072597064FF448
:102BF0008068614537D13E491431D1F800C04CF0AE
:102C0000100CC1F800C0096801F0100105910168BD
:102C100041F0020101600068694600F00200059081
:102C2000C0208DE81500CDE903353248FEF778FE67
:102C3000324D31482860C5E90174C5E903486C612B
:102C4000AC61EC612C6228466C62FEF7B5FD08B100
:102C5000FDF7A7FEF563002205212520AE63FFF7EF
:102C60001DF825203CE0DFF898C061453AD12049A5
:102C70001031D1F800C04CF4802CC1F800C00968B4
:102C800001F480210591016841F0040101600068B0
:102C9000694600F0040005904FF440608DE815008F
:102CA000CDE903351748FEF73BFE144D1648603555
:102CB0002860C5E90174C5E903486C61AC61EC6149
:102CC0002C6228466C62FEF777FD08B1FDF769FEBD
:102CD000F563002205212720AE63FEF7DFFF2720E2
:102CE000FEF7CEFF06B0BDE8F08100000010014005
:102CF000303802400004024040640240D00200200C
:102D000000480040000802402860024070477047B9
:102D10007047FEE70D4810B50B4901601021416076
:102D200000218160C1600161416101764176817657
:102D3000C17601774177FEF782FA002803D0BDE81B
:102D40001040FDF72EBE10BD006400409801002029
:102D50000D4810B50B4901600F21416000218160D1
:102D6000C16001614161017641768176C17601776A
:102D70004177FEF764FA002803D0BDE81040FDF764
:102D800010BE10BD00680040C0010020114808B509
:102D9000016841F480010160016801F48001009143
:102DA000016841F4001101600068002200F4001085
:102DB000009005210C20FEF771FF0C20FEF760FF4C
:102DC000002205213A20FEF769FFBDE808403A20BD
:102DD000FEF756BF3038024010B50E4A00210E48AB
:102DE00002F00AFE0D4C0B4A0021206024320C48F0
:102DF00002F002FE074A606048320021094802F0F2
:102E0000FBFD044AA0606C320021074802F0F4FD8B
:102E1000E06010BDD47E0008B13100080000002041
:102E200065320008CD310008B931000830B587B0EF
:102E300014216846FDF7C2FB21480024016841F0D7
:102E400002010160016801F002010591016841F091
:102E500001010160016801F001010591016841F083
:102E600004010160016801F004010591016841F06D
:102E700008010160016801F008010591016841F055
:102E800080010160016801F080010591016841F055
:102E90002001016000680B4D00F020000590002229
:102EA00040212846FEF756FE402000900120CDE943
:102EB0000104694628460394FEF732FD07B030BD91
:102EC00030380240001402400F4810B50D4901602F
:102ED0004FF48271416000218160C1604FF4007243
:102EE0000161C0E90512C1610162416281620A218A
:102EF000C162FFF7FFF9002803D0BDE81040FDF7DD
:102F000050BD10BD00500140E80100200C4810B534
:102F10000A4901604FF4E1314160002181600C22D7
:102F2000C160C0E904128161C161FFF71DFE002884
:102F300003D0BDE81040FDF734BD10BD00100140C6
:102F4000400200200C4810B50A4901600B4941605D
:102F5000002181600C22C160C0E904128161C1615D
:102F6000FFF702FE002803D0BDE81040FDF719BDB1
:102F700010BD00000048004088020020A08601002B
:102F8000FEE7FEE7D0ED030A30EEC00A80ED040A4A
:102F9000D0ED050A30EE801A80ED051AD0ED070A53
:102FA00070EE600AC0ED060A80ED070AD0ED001A47
:102FB00021EE800AD0ED011A01EE810A90ED021A8D
:102FC00001EE200A7047000000487047584F00206B
:102FD00010B514210D48FDF7CFFA0C4824212438F0
:102FE000FDF7CAFA0A490020122208700749094869
:102FF0002439FFF722FC0748C06B002804D0006882
:10300000016821F00801016010BD0000584F002048
:10301000A400002088020020002832D00188C1F3DB
:103020000A0218490A8042788378D20842EA431299
:10303000C2F30A024A808278C378920942EA830284
:10304000037942EA8322C2F30A028A800279437931
:10305000520842EAC312C2F30A02CA8042799209B4
:103060000A724279C2F301124A72C2884A81028905
:103070008A814289CA81027B0A74427B4A74C08970
:1030800048827047584F0020F8B515460E460B464B
:10309000009204460122022100F02CF8A0B9134846
:1030A00013490068B0FBF1F04FF47A714843009087
:1030B0006068B0F5827F0DD1334600228021204622
:1030C000009500F017F870B1606D40F02000606569
:1030D0000320F8BD009830B1401E00902068806841
:1030E000C0430006F6D50020F8BD000020000020F7
:1030F00000366E012DE9F8431E4691468846044687
:10310000089DFEF72DFD401B351AFEF729FD0746E9
:1031100026480068C0F3CB3068430AE0701C09D031
:10312000FEF71EFDC01BA8420FD275B10098B8B3C0
:10313000401E00902068816838EA010033D00021E9
:103140004945EBD10020BDE8F8832068416821F0B3
:10315000E00141606068B0F5827F0BD1A068B0F5F6
:10316000004F02D0B0F5806F04D12068016821F0D3
:1031700040010160A06AB0F5005F09D120680168D4
:1031800021F4005101602068016841F400510160A0
:10319000012084F85100002084F850000320D2E779
:1031A000FFE70025C6E70121CAE700002000002054
:1031B000012002F0E5FBFBE702F03CFA01F00CFD18
:1031C00001F060FF0A2002F0DBFBF5E71CB50025EB
:1031D000224C234E40F2FF17FDF7E6FB6089218861
:1031E000401A00EE100A1D48B8EEC00A3830FFF74A
:1031F000C9FEBCEEC00A10EE100A2082A0896188C8
:10320000401A00EE100A1548B8EEC00A1830FFF751
:10321000B9FEBCEEC00A218AE28810EE100A401AFC
:10322000B6F9041080B201FB12006082E08900EE62
:10323000100A0A48B8EE400A5830FFF7A3FEBCEE69
:10324000C00A694610EE100AA08200953846019522
:10325000FDF7C6FA0A2002F093FBBDE7A8000020A4
:10326000260100202DED068B84B040F206270025B4
:10327000284E294C9FED298B9FED2A9B9FED2BAB70
:103280004FF4007823493846FDF784FAB08B218843
:10329000401A04F046FA53EC182B04F0A9FA53EC48
:1032A000192B04F0A5FA53EC1A2B04F0A1FAC4E987
:1032B000040102A8FDF7CEFB00950195FFF784FEFF
:1032C000407A03281CD0BDF80A008DF80000000ADF
:1032D0008DF80100BDF808008DF80200000A8DF895
:1032E0000300BDF80C008DF80400000A8DF80500FD
:1032F000BDF80E008DF80600000A8DF8070001E009
:103300000095019569464046FDF7F8F90A2002F05C
:1033100037FBB7E70C500020200100200000000020
:1033200000000040182D4454FB210940000000001B
:103330000000203F10B54FF0E020006903F086FD4B
:10334000012803D0BDE8104003F0B4BA10BD00005E
:1033500070B592B030216846FDF730F914210CA801
:10336000FDF72CF91F480025016841F080510160EC
:10337000006800F0805011901B48016841F4404102
:1033800001600068022400F4404011900120009088
:10339000000401908001CDE906400F260896D82050
:1033A000CDE9090404200B906846FEF7EDFD08B155
:1033B00072B6FEE7FEF7A4FC08B172B6FEE74FF462
:1033C000A050CDE90E504FF48050CDE90C64109020
:1033D00005210CA8FEF7CCFC002801D072B6FEE750
:1033E00012B070BD403802400070004002480168D1
:1033F00041F470010160704788ED00E00148FFF77B
:1034000076B9000090030020F0B50268274B284DE4
:10341000284E294F294C4FF0804C984209D06045E6
:1034200007D0A84205D0B04203D0B84201D0A04294
:1034300004D122F0700E4A6842EA0E0298421BD074
:10344000604519D0A84217D0B04215D0B84213D069
:10345000A04211D01A4DA8420ED01A4DA8420BD04E
:10346000194DA84208D0194DA84205D0184DA842C0
:1034700002D0184DA84203D122F44075CA682A43ED
:103480004D6922F080022A438D68C5620D6885620D
:10349000984201D0A04201D109690163016841F05D
:1034A00004010160012141610260F0BD00000140A2
:1034B0000004004000080040000C004000040140EF
:1034C0000040014000440140004801400018004015
:1034D000001C00400020004010B5806B0021C18519
:1034E000FFF700FA10BD70B5846B2068406994F84E
:1034F0004110C0F3C0100025212904D118B1E58482
:10350000204600F08EF82068406994F84210C0F31D
:103510008010222904D118B1E585204600F05AF820
:10352000606C40F0100060642046FFF7DBF970BD6E
:1035300010B50146806B096809684FF00002C905A3
:103540002ED4C28501680C3151E8003F23F480730A
:1035500041E80034002CF5D10168143151E8003FF6
:1035600023F0010341E80034002CF5D10168143147
:1035700051E8003F23F0400341E80034002CF5D12E
:10358000202180F84210016B012909D101680C311A
:1035900051E8003F23F0100341E80034002CF5D13E
:1035A0004263016B012902D0FFF7B0FB10BD818D92
:1035B000FFF768F910BD10B5806B01214163016B05
:1035C000012902D0FFF7A3FB10BD818D4908FFF749
:1035D00059F910BD01680C3151E8002F22F49072A6
:1035E00041E80023002BF5D10168143151E8002F88
:1035F00022F0010241E80023002BF5D1016B0129E3
:1036000009D101680C3151E8002F22F0100241E885
:103610000023002BF5D1202180F842100021016306
:10362000704701680C3151E8002F22F0C00241E8D8
:103630000023002BF5D1202180F84110704708B5F8
:1036400090F84210222901D0022008BD82684FF470
:1036500080539A4201D1016921B1816A9A421BD0FB
:103660004AB10AE00268816A5268C2F308020A801D
:10367000816A891C08E0026972B10268526802F02E
:103680007F020A70816A491C8162C18D491E09044A
:10369000090CC18503D01BE002685268F1E701689C
:1036A000CA6822F02002CA600168CA6822F48072E7
:1036B000CA6001684A6922F001024A61202180F84B
:1036C000421000214163026B012A03D0FFF71EFB69
:1036D000002008BD016301680C3151E8002F22F081
:1036E000100241E80023002BF5D101680A68D206D8
:1036F00002D50A6849680091818DFFF7C3F8E7E7B2
:1037000070B5044600680169E26821F44051114334
:1037100001612169A068E2690843616911430843B6
:103720002168CA6849F20C639A430243CA60206860
:103730004169A26921F44071114341613149206816
:10374000884202D03049884202D1FEF7DBFB01E01B
:10375000FEF7C8FBE2690023192164253226B2F581
:10376000004F626828D0A0FB0101930F9200FCF784
:103770000DFE0146B0FBF5F06FF01802504301EB6F
:10378000800006EB0010B0FBF5F000F0F002B1FB9A
:10379000F5F002EB0012B1FBF5F06FF0180358439F
:1037A00001EB800006EB0010B0FBF5F000F00F001D
:1037B00021681044886070BDA0FB010192185B4134
:1037C000FCF7E4FD0146B0FBF5F00201B1FBF5F0BA
:1037D0006FF01803584301EB800006EBC000B0FB0C
:1037E000F5F000F0F80002EB4002B1FBF5F05843B1
:1037F00001EB800006EBC000B0FBF5F000F0070025
:10380000D6E70000001001400014014038B5816285
:1038100004468285002013466064222284F84220F8
:10382000E56B1F4AEA63E56B1E4A2A64E56B1E4A94
:10383000EA64E26B10650A462168E06B091DFEF739
:1038400025F830B110206064202084F84200012067
:1038500038BD2068016840680090206948B1206840
:103860000C3050E8001F41F4807140E80012002A3B
:10387000F5D12068143050E8001F41F0010140E804
:103880000012002AF5D12068143050E8001F41F0E2
:10389000400140E80012002AF5D1002038BD0000A8
:1038A00031350008B7350008E73400080148FFF754
:1038B0001BB80000400200200148FFF715B80000C7
:1038C00088020020FEE703B401984100009850EA06
:1038D000C12018BF04204A0D18BF40F0010040F27B
:1038E000FF72B2EB515F08BF40F00200012808BF31
:1038F000052002B070470907090E002804DB00F11B
:10390000E02080F80014704700F00F0000F1E02084
:1039100080F8141D7047000070B5C1482DED020BF2
:103920002DED0E8B82B0119D25F000449FEDBEDB86
:103930009FEDBFEB84423EDBA4F140511098A1F112
:103940007F6108430FD0BC48844202DC28D1109824
:1039500030B39DED100B02B0BDEC0E8B02B0BDE894
:10396000704001F0F1B89DED100B53EC1D2B51ECA4
:10397000100B03F03DFF9DED100B41EC180B53ECC9
:103980001E2B51EC100B03F033FF53EC182B03F0FC
:1039900051FC41EC100B02B0BDEC0E8B02B070BDBF
:1039A0000120FCF73AFE02B0BDEC0E8B02B0BDE880
:1039B000704001F0DDB8A1489FEDA18B844256DA3A
:1039C0009DED100BB4F1795F0ADA51EC100BFFF7A3
:1039D0007AFF042808BF01F0DBF89DED100BDAE751
:1039E00053EC102B51EC100B03F002FF41EC190BC0
:1039F00095480621B0EE490AF0EE690A784400F0D5
:103A00008FFF53EC192B51EC100B03F0F1FE41EC3E
:103A10001A0B8E48B0EE490AF0EE690A0421784488
:103A200000F07EFF53EC192B51EC100B03F0E0FE7D
:103A300053EC182B03F0FEFB41EC100B51EC1A0B6E
:103A400053EC102B03F0AAFCCDE900019DED000B17
:103A500053EC102B9DED100B51EC100B03F0C8FE36
:103A60009DED101B53EC112B03F0E4FBD2E09DED18
:103A7000100B51EC100B01F0A3F853EC182B03F0D2
:103A8000EBFF9FED730BCDE9000153EC102B9DED87
:103A9000000B51EC100B03F0ABFE41EC190B6E4820
:103AA0000621B0EE490AF0EE690A784400F038FFCA
:103AB00053EC192B51EC100B03F09AFE41EC1B0B4D
:103AC0006648B0EE490AF0EE690A0421784400F035
:103AD00027FF53EC192B51EC100B03F089FE53EC2C
:103AE000182B03F0A7FB41EC1C0B51EC190B02F057
:103AF00017FC41EC180B5A489FED5BABA04222DC4F
:103B000053EC1C2B51EC1B0B03F048FCCDE90001DE
:103B10009DED000B51EC180B53EC102B03F068FEDD
:103B200053EC182B03F086FB53EC1A2B03F060FECA
:103B300053EC1D2B04F068F853EC1E2B03F08CFFA4
:103B400041EC100B5FE08DED008B002000909DEDAF
:103B5000000B51EC180B53EC102B03F06BFB9DED9D
:103B6000000B41EC1E0B53EC102B51EC100B03F02F
:103B70003FFE53EC192B03F06FFF53EC1E2B03F0A9
:103B80000DFC41EC190B53EC1C2B51EC1B0B03F0FF
:103B900005FC41EC1B0B53EC1A2B51EC190B03F0F9
:103BA00027FE53EC1D2B03F057FF41EC190B53EC90
:103BB0001A2B51EC180B03F01BFE53EC1B2B03F0DC
:103BC00017FE53EC192B04F01FF89DED000B41EC90
:103BD000180B53EC1A2B51EC100B03F009FE9FED60
:103BE000249B53EC192B03F037FF41EC100B51ECE5
:103BF000180B53EC102B04F007F853EC192B03F0BF
:103C00002BFF41EC100B002D3FF7C5AE51EC100B14
:103C100003F0D2FA41EC100BBDE6000000000000FA
:103C20000000F03F00000000075C143326A6913C22
:103C3000182D4454FB21F93F0000F07F0000E03FC5
:103C4000000000000000F03F98450000A64500007D
:103C5000000000000000E03FEA440000F8440000DB
:103C60003333EF3F00000000000000000000004080
:103C7000182D4454FB21E93F70B59B482DED020BF4
:103C80002DED068B079D25F00044A04218DC9748D7
:103C9000844202DC0AD1069840B19DED060BBDECD2
:103CA000068B02B0BDE8704000F04EBF002DCCBFC7
:103CB0009FED8F0B9FED900BBDEC068B02B070BD9E
:103CC0008F48A04215DD8F48A042D8BF4FF0FF3487
:103CD00058DD9DED060B51EC100BFFF7F4FD0428A9
:103CE00008BF00F055FF9DED060BBDEC068B02B042
:103CF00070BD9DED060B51EC100B00F061FFCDE99E
:103D0000060181489FED828BA0423CDD8248A042A3
:103D10001FDD00249FED82AB9DED060B53EC1A2BAB
:103D200051EC100B03F086FA9DED060B41EC190BDC
:103D300053EC1A2B51EC100B03F05AFD53EC182BDB
:103D400003F062FF53EC192B03F028FBCDE90601C9
:103D500049E09DED060B012453EC182B51EC100BA0
:103D600003F068FA9DED060B41EC190B53EC182B90
:103D700051EC100B03F048FF53EC192B03F00EFB32
:103D8000CDE906012FE06848A0421FDD02249FED27
:103D9000689B9DED060B53EC192B51EC100B03F0B7
:103DA00027FD53EC182B03F045FA9DED060B41EC73
:103DB000180B53EC192B51EC100B03F025FF53ECAF
:103DC000182B03F0EBFACDE906010CE09DED060B94
:103DD000032453EC102B9FED580B51EC100B03F008
:103DE000DDFACDE906019DED060B53EC102B51ECED
:103DF000100B03F0FDFC41EC180B53EC182B03F0F7
:103E0000F7FC41EC190B4E480621B0EE490AF0EEE2
:103E1000690A784400F084FD53EC182B51EC100B28
:103E200003F0E6FC41EC180B4648B0EE490AF0EE10
:103E3000690A0521784400F073FD53EC192B51EC0D
:103E4000100B03F0D5FC41EC100B51EC180B53ECAC
:103E5000102B002C0EDA03F0EDF99DED061B53EC50
:103E6000112B03F0C5FC9DED061B53EC112B03F049
:103E7000F3FD35E003F0DEF99DED061B53EC112B4D
:103E800003F0B6FC41EC100B2F48784400EBC40063
:103E900090ED001B51EC100B53EC112B03F0B4FE12
:103EA0009DED061B53EC112B03F0AEFE41EC100B05
:103EB0002648784400EBC40090ED001B51EC100B39
:103EC00053EC112B03F0C8FD41EC100B002DA2BFE9
:103ED000BDEC068B02B070BD51EC100B03F06CF919
:103EE00041EC100B01E70000000010440000F07FDF
:103EF000182D4454FB21F93F182D4454FB21F9BFE0
:103F00000000DC3F0000203E0000F33F0000000006
:103F1000000000000000F03F0000E63F000000004D
:103F2000000000000000004000800340000000008E
:103F3000000000000000F83F000000000000F0BF9B
:103F40003A420000F04100007A4100003241000096
:103F500070B56F4E2DED040B2DED048B82B0DDF8A6
:103F600024C0DDE907235C422CF000411C4341EAF8
:103F7000D474069D22F00040B44205D86C422C4314
:103F800040EAD474B4420BD99DED081B9DED060B9D
:103F900002B0BDEC048B04B0BDE8704000F0DEBDA3
:103FA000ACF14054A4F17F641C430BD0022404EA1A
:103FB000AC7444EAD27405439FED578B9FED582BA8
:103FC00007D015E09DED060B51EC100B00F0F0FD55
:103FD00042E0002C11BF012C9DED060B02B0BDECA0
:103FE000048B04BF04B070BD022C38D0032C3BD02E
:103FF0000B439FED4D1B9FED4E0B0AD0B14218D1E4
:10400000B04209D121F0804120F080400991079011
:104010000FE0002A15DA10E0474B7B44002C08BF64
:1040200093ED000B0DD0012C10D0022C17D0032CD7
:104030001AD0B0421DD1002A03DAB0EE410AF0EEE8
:10404000610A02B0BDEC048B04B070BD93ED000BAF
:1040500051EC100B03F0B0F841EC100BF1E7B0EEAF
:10406000480AF0EE680AECE7B0EE420AF0EE620AA7
:10407000E7E7401A00159FED329B3C28C8BF8DED45
:10408000000B17DCBCF1000FBCBF10F13C0F8DED35
:10409000009B0FDB9DED080B53EC102B9DED060BE9
:1040A00051EC100B03F07AF900F08AFD00F080FD6E
:1040B000CDE90001B4B1012C10D0022C9FED220BF0
:1040C00053EC102B9DED000B51EC100B19D003F0AD
:1040D0009BFD53EC182B03F097FDBDE7019880F092
:1040E000004001909DED000B53EC192B51EC100B8F
:1040F00003F0ACFA04BF0220FCF78FFA9DED000B31
:104100009FE703F081FD53EC182B03F0A5FCA3E718
:104110000000F07F00000000182D4454FB210940EE
:10412000182D4454FB2109C0182D4454FB21F9BF1C
:10413000182D4454FB21F93F92400000000000007C
:104140000000000000000000075C143326A6A13C1C
:1041500010B52F499FED2C1B2DED020B84B0059857
:1041600020F000408842D8BF9DED040B2DDD294989
:10417000884209D1049840B94FF00100FCF74DFA8C
:1041800000F0F6FC06B010BD05DB9DED040B00F061
:10419000DBFC06B010BD68469DED040B00F0ECF8AA
:1041A00010F0030004BF9DED021B9DED000B0CD031
:1041B00001280ED09DED021B9DED000B022817D0AB
:1041C000012000F029FC06B010BD00F0F1FA06B0A5
:1041D00010BD9DED021B9DED000B012000F01CFCAD
:1041E00051EC100B02F0E8FF06B041EC100B10BDD3
:1041F00000F0DEFA51EC100B02F0DEFF06B041ECED
:10420000100B10BD000000000000000000000000C6
:10421000FB21E93F0000F07F2DED020B019820F01B
:10422000004001909DED000B02B0704700000000BF
:1042300010B52F499FED2C1B2DED020B84B0059876
:1042400020F000408842DCBF00209DED040B32DDF1
:104250002849884209D1049840B94FF00100FCF781
:10426000DCF900F085FC06B010BD05DB9DED040B0C
:1042700000F06AFC06B010BD68469DED040B00F02E
:104280007BF810F0030011D0012818D09DED021B1F
:104290009DED000B02281AD000F08AFA51EC100BA9
:1042A00002F08AFF06B041EC100B10BD9DED021B21
:1042B0009DED000B012000F0AFFB06B010BD9DEDA1
:1042C000021B9DED000B00F073FA06B010BD01203B
:1042D00000F0A2FB51EC100B02F06EFF06B041ECB7
:1042E000100B10BD000000000000000000000000E6
:1042F000FB21E93F0000F07F00B52DED048BB0EE0F
:10430000409AF0EE609A83B051EC190B03F0B0FBC9
:1043100041EC180B18EE100A18EE901A8DED008B78
:10432000002818BF0120084320F00040C0F17F6042
:1043300000F1E040C00F14D019EE101A19EE900AE7
:104340008DED009B002918BF0121084320F000409B
:10435000C0F17F6000F1E040C00F04BF0120FCF716
:104360005CF9B0EE480A03B0F0EE680ABDEC048BCD
:1043700000BD0000000000002DE9F14F04462DEDC6
:10438000020B2DED088B8AB09FEDE70B80ED020B41
:10439000139EE74826F0004585420ADC9DED120B8E
:1043A000002084ED000B0AB0BDEC088B03B0BDE823
:1043B000F08FE0489FEDE0AB9FEDE1BBA84247DD09
:1043C000E14F9FEDE39B9FEDE48B9DED120B53ECD2
:1043D0001A2B51EC100B002E1CDD03F015FC41ECE8
:1043E000100BBD4208D053EC1B2B51EC100B03F00B
:1043F0000BFCC4E900010BE053EC192B51EC100B42
:1044000003F002FC53EC182B03F0FEFBC4E900019F
:104410000120C8E702F00EFF41EC100BBD4208D0AE
:1044200053EC1B2B51EC100B02F004FFC4E900010C
:104430000BE053EC192B51EC100B02F0FBFE53EC8C
:10444000182B02F0F7FEC4E900014FF0FF30AAE795
:10445000C348A84279DB9DED120B51EC100B00F024
:10446000AFFB41EC180B9FEDC00B53EC102B03F08E
:10447000BFF99FEDBF1B53EC112B02F0DBFE03F0E5
:1044800021F9074603F04DF941EC190B53EC1A2BB7
:1044900003F0AEF953EC182B03F0DEFA41EC180BE5
:1044A00053EC1B2B51EC190B03F0A2F9DFF8C8A257
:1044B00041EC100B4FEA15580125FA4453EC102B30
:1044C00051EC180B03F0A0FB032DC4E900013DD013
:1044D000C1F30A5005EB4511A8EB000011398142E8
:1044E00034DA0AEB051BB0EE48AA9BED000BF0EEA8
:1044F00068AA53EC102B51EC190B03F079F941EC3D
:104500001B0B51EC1A0B53EC1B2B03F07DFB41EC06
:10451000180B51EC1A0B53EC182B03F075FB53ECF2
:104520001B2B03F071FB9BED020B41EC1A0B53ECC0
:10453000102B51EC190B03F05BF953EC1A2B03F021
:1045400063FB41EC100B6D1CB8E70EE0002EA8BF1A
:104550003846BFF628AF94ED000B51EC100B02F07B
:104560002BFEC4E9000178421DE7C6F3130040F4B6
:10457000801EC6F30A50A0F2F530471100F01F0567
:10458000C5F12000DDF848B00890002006900790A3
:104590000520EC467949002D07EB0002794408BF5D
:1045A00051F8221009D051F8223001EB8201AB40C2
:1045B0004A68089922FA01F11943A1FB0E26A1FBD2
:1045C0000B131A449A4234BF0123002303EB06085D
:1045D0000CEB8003D3E901A60E448E4234BF0121C7
:1045E000002192448A4411B1924502D903E09245D8
:1045F00001D2012100E00021C3E901A641444CF8A9
:104600002010011EA0F10100C4DC029800F100504E
:10461000850F0298DDE903678000DDF8148003F060
:1046200080F841EC1A0B304603F092F89FED541BD2
:1046300053EC112B03F0DCF841EC1B0B384603F074
:1046400087F89FED511B53EC112B03F0D1F841EC8F
:10465000180B404603F07CF89FED4D1B53EC112BDB
:1046600003F0C6F841EC190B51EC180B53EC192B65
:1046700002F0E0FD53EC1B2B02F0DCFD53EC1A2B97
:1046800002F0D8FDCDE90801002008909DED080B4F
:1046900053EC1A2B51EC100B03F0B6FA53EC1B2B16
:1046A00003F0B2FA53EC182B03F0AEFA53EC192BCB
:1046B00003F0D2F99FED381B53EC112B03F098F85F
:1046C0009FED370B41EC180B53EC102B9DED080BB5
:1046D00051EC100B03F08CF853EC182B02F0AAFDF0
:1046E0009FED310B41EC180B53EC102B9DED080B9B
:1046F00051EC100B03F07CF853EC182B02F09AFDF0
:1047000041EC100B139810F0004F06D06D4251ECA5
:10471000100B02F051FD41EC100B284684ED000B0C
:1047200041E6000000000000000000000000000062
:10473000FB21E93F7CD9024000004054FB21F93FB6
:104740003163621A61B4D03DFB21F93F00000000E3
:104750000000601A61B4D03D7370032E8A19A33B28
:10476000FB2139410000000083C8C96D305FE43F80
:10477000000000000000E03FFA3B0000483B000062
:10478000000000000000103E000000000000103C8F
:10479000000000000000103A182D4454FB21F93DA0
:1047A0003326A611460B113C00000054FB21F93DB5
:1047B00010B52DED040B2DED088B82B0B0EE419AB3
:1047C000F0EE619A0B9820F000449FED4BABB4F1F2
:1047D000795F11DA9DED0A0B51EC100B02F072FFBC
:1047E000002801BFB0EE4A0AF0EE6A0A02B0BDEC42
:1047F000088B04BF04B010BD9DED0A0B53EC102BC9
:1048000051EC100B02F0F4FF41EC180B3C48062170
:10481000B0EE480AF0EE680A784400F081F853ECF4
:10482000182B51EC100B02F0E3FF9DED0A0B41EC4D
:104830001B0B53EC192B51EC100B02F0D9FF41EC80
:10484000190B53EC1B2B51EC180B02F0D1FF53EC5E
:10485000192B03F0D9F99FED2C0B41EC190B53ECFC
:10486000102B51EC180B02F0C3FF41EC100B284841
:10487000844210DA53EC192B51EC100B03F0C4F9FD
:1048800053EC1A2B03F0E8F841EC100B02B0BDEC2E
:10489000088B04B010BD1F48A042BCBF9FED1E1B7B
:1048A0008DED001B06DBA4F50010019000200090A8
:1048B0009DED001B51EC100B53EC112B03F0A4F9F0
:1048C0009DED000B41EC180B53EC102B51EC1A0B27
:1048D00003F09AF941EC1A0B53EC192B51EC180B1D
:1048E00003F092F953EC1A2B03F0B6F841EC100BDD
:1048F000CCE7000000000000000000000000F03FD6
:104900006438000000000000000000000000E03FEC
:104910003333D33F0000E93F000000000000D23FE6
:1049200070B504462DED028B4D1E00EBC500B0EEB8
:10493000408AF0EE608A90ED000B35F0060017D04B
:1049400053EC182B51EC100B02F052FF41EC100B02
:104950006D1E04EBC50090ED001B51EC100B53ECE9
:10496000112B02F067FC41EC100B35F00600E7D18B
:10497000022D36D0042D1CD0062D1CBFBDEC028BA1
:1049800070BD53EC182B51EC100B02F031FF94ED7D
:104990000A1B53EC112B02F04DFC53EC182B02F0C8
:1049A00027FF94ED081B53EC112B02F043FC41EC64
:1049B000100B53EC182B51EC100B02F019FF94ED77
:1049C000061B53EC112B02F035FC53EC182B02F0B4
:1049D0000FFF94ED040B53EC102B02F02BFC41EC79
:1049E000100B53EC182B51EC100B02F001FF94ED5F
:1049F000021B53EC112B02F01DFC53EC182B02F0A0
:104A0000F7FE94ED001B53EC112B02F013FCBDECF0
:104A1000028B41EC100B70BD31B504462DED040B3B
:104A20002DED0A8BB0EE41BAF0EE61BA0B989DED18
:104A30000A0B20F00040B0F1795F0DDA51EC100B59
:104A4000FEF741FF042808BF00F0A2F89DED0A0B15
:104A5000BDEC0A8B05B030BD53EC102B51EC100BA4
:104A600002F0C6FE41EC180B9DED0A0B53EC182B1F
:104A700051EC100B02F0BCFE41EC190B2C48B0EECF
:104A8000480AF0EE680A05217844FFF749FF9FEDD8
:104A90002ACBB0EE40AAF0EE60AA9CB353EC1C2BDC
:104AA00051EC190B02F0A4FE41EC1C0B53EC1A2B39
:104AB00051EC190B02F09CFE9FED210B41EC190B00
:104AC00053EC102B51EC1B0B02F092FE53EC192B04
:104AD00003F09AF853EC182B02F08AFE53EC1B2BD0
:104AE00003F092F853EC1C2B03F08EF89DED0A1B9B
:104AF00053EC112B02F0B0FFBDEC0A8B05B041EC7A
:104B0000100B30BDFFE753EC1A2B51EC180B02F0E1
:104B10006FFE53EC1C2B02F08DFB53EC192B02F0B3
:104B200067FE9DED0A1B53EC112B02F083FBE3E7BC
:104B3000F436000000000000495555555555C5BFD5
:104B4000000000000000E03F10B553EC102B51ECCA
:104B5000100B02F06FFB41EC100B10BD10B553ECC5
:104B6000112B51EC100B02F065FB41EC100B10BD4A
:104B70009FED050B10B553EC102B51EC100B02F010
:104B80000DFC41EC100B10BD000000000000000007
:104B90009FED050B10B553EC102B51EC100B02F0F0
:104BA00027FE41EC100B10BD0000000000000010BB
:104BB00010B541EC100BFFF75FF851EC100B10BD76
:104BC00082B0CDE9000121F0004001909DED000B85
:104BD00002B051EC100B704710B5FF4CFF482DEDA3
:104BE000108B94ED010AD4ED010A20EE20FA94ED29
:104BF000010AD4ED020A20EE20CA94ED010AD4ED98
:104C0000030A60EE20BA94ED010AD4ED040A60EEC6
:104C100020CA94ED020AD4ED020A20EE20DA94EDC7
:104C2000020AD4ED030A20EE209A94ED020AD4ED94
:104C3000040A20EE20BA94ED030AD4ED030A60EED4
:104C400020AA94ED030AD4ED040A20EE20AA94EDE4
:104C5000040AD4ED040A60EE209A90ED040A84ED73
:104C6000080A90ED050A84ED090A90ED060A84ED24
:104C70000A0AB0F9001000EE101AB8EEC00A84ED6E
:104C80000B0AB0F9021000EE101AB8EEC00A84ED5B
:104C90000C0AB0F9041000EE101AB8EEC00A84ED48
:104CA0000D0AB0F9061000EE101AB8EEC00A84ED35
:104CB0000E0AB0F9081000EE101AB8EEC00A84ED22
:104CC0000F0AB0F90A0000EE100AB8EEC00A84ED2F
:104CD000100AFCF745FFA064A06C616C401A00EE5E
:104CE000100AB8EE400ADFEDBE0AA06CC0EE208AC2
:104CF000606494ED0B0AD4ED0B0A94ED0C1A20EECF
:104D0000200AD4ED0C0A00EE810AD4ED0D0A94EDD0
:104D10000D1A00EE810A00F055FBD4ED0B0A60EE8F
:104D2000800AC4ED0B0AD4ED0C0A60EE800AC4EDD3
:104D30000C0AD4ED0D0A20EE800A84ED0D0A94EDE4
:104D40000E0AD4ED0E0A94ED0F1A20EE200AD4EDCF
:104D50000F0A00EE810AD4ED100A94ED101A00EE4D
:104D6000810A00F02FFBD4ED0E0AB6EE001AB0EE69
:104D7000008A60EE800A39EE6CEA7BEE2B1AC4EDF5
:104D80000E0AD4ED0F0A60EE800AC4ED0F0AD4EDCE
:104D9000100A20EE800A71EE6A0A31EE4D1A84ED97
:104DA000100A94ED0E0A70EEE9EA31EE692A20EE5F
:104DB000080A71EE6ADA60EE2E0A94ED0F0A20EE10
:104DC000080A40EE0E0A94ED100A20EE080A40EEA2
:104DD000210A94ED0E0A79EE2C1A7BEE6BCA20EEB6
:104DE000080A60EEA00A20EE210AD4ED0F1A61EE47
:104DF000881A01EE820AD4ED101A3AEE4C2A61EEBE
:104E0000881A01EE820AD4ED0E1A3AEE0C2A61EEEF
:104E1000881A40EE000A21EEAC9AD4ED0F1A10EE7B
:104E2000900A61EE881A01EE829AD4ED101A61EEB2
:104E3000881A01EEAD9A02F0D1FF41EC100BFFF79A
:104E40005BFA51EC100B02F0C3F900EE900A7CEE15
:104E50000A2A3FEE4D1A60EE880A69EE083A22EE01
:104E6000880A31EE6A1A60EE8E1A94ED104A2CEE22
:104E7000882A31EE293A43EEA21A7BEE8B2A20EEE5
:104E8000AE1A60EEA22AD4ED0C0A03EEAC1A43EE81
:104E9000AD2A60EE830AD4ED0D3A43EEC00AD4ED9C
:104EA0000F3A63EEA23A44EE613A94ED0B4A70EE8B
:104EB000A30AD4ED0D3A63EE823AF5EEC00A44EE51
:104EC000433A94ED103A94ED0E4A23EE013A04EE83
:104ED000623A73EE832A94ED0B3A23EE000A94EDC6
:104EE0000C3A03EE420A94ED0E2A62EE211A94ED7A
:104EF0000F2A42EE411A30EE210AF1EE10FA41D0AB
:104F0000F5EEC02AF1EE10FA3CD0B5EEC00AF1EE93
:104F100010FA37D0D4ED051A9FED321A20EE812A0F
:104F200042EE281A22EE812AC4ED051AD4ED061AA3
:104F300042EE281AC4ED061A60EE011A94ED071A23
:104F400001EEA81A84ED071A94ED081A00EE881AEB
:104F5000D4ED050A71EE200AC4ED080AD4ED090A61
:104F600094ED061A42EE880A70EE810AC4ED090A31
:104F7000D4ED0A0A40EE080A94ED070A30EE800AE2
:104F800084ED0A0A94ED020AD4ED080A94ED091A98
:104F900094ED013A20EEC00AD4ED030A00EEC10AF6
:104FA000D4ED040A94ED0A1A00EEC10AD4ED080A01
:104FB00094ED0A1A00EE283A94ED010A20EE200A38
:104FC000D4ED030A00EE810AD4ED040A94ED091A27
:104FD00000EEC10A08E00000380100203050002037
:104FE0000000FA440AD7233CD4ED021AD4ED090A92
:104FF00094ED0A1A40EE281A94ED010A94ED032A62
:10500000D4ED042A20EE200AD4ED020A00EEC10AF3
:10501000D4ED040A94ED081A00EE810AD4ED0A0AD0
:1050200094ED091A00EE282A94ED010A20EE200AD8
:10503000D4ED020A00EE810AD4ED030A94ED081AB9
:1050400000EEC10A40EE282A23EE030A01EEA10A6F
:1050500002EE020A02EEA20A00F0B4F963EE000AC0
:10506000C4ED010A61EE800AC4ED020A62EE000A94
:1050700022EE800AC4ED030A84ED040ABDEC108B15
:1050800010BD000070B5564C2DED068BF8EE008A71
:10509000B0EE008AB7EE00AA94ED030AD4ED030A3D
:1050A00094ED041A20EE280A20EE200AD4ED040A1A
:1050B00060EE880A00EEC10A30EE0A0A10EE100A0D
:1050C00002F08CFE94ED020AD4ED030A94ED041A6A
:1050D00020EE080A41EC190B20EE200AD4ED010A5B
:1050E00060EE880A00EE810A10EE100A02F076FEE9
:1050F00041EC100BB0EE491AF0EE691AFEF728FFEA
:105100009FED389B51EC100B53EC192B02F070FB08
:1051100002F05EF8354D286394ED020AD4ED040ADE
:1051200094ED031A20EE280A20EE200AD4ED010A9D
:1051300060EE880A00EE810A10EE100A02F04EFEC0
:1051400041EC100BFEF7E8FB53EC192B51EC100B64
:1051500002F04EFB02F03CF8E86294ED020AD4ED56
:10516000020A94ED031A20EE280A20EE200AD4ED5C
:10517000030A60EE880A00EEC10A30EE0A0A10EE59
:10518000100A02F02BFE94ED030AD4ED040A94ED0C
:10519000021A20EE080A41EC190B20EE200AD4ED89
:1051A000010A60EE880A00EE810A10EE100A02F091
:1051B00015FE41EC100BB0EE491AF0EE691AFEF73D
:1051C000C7FE9FED0B1B51EC100B53EC112B02F0A3
:1051D0000FFB01F0FDFFA862BDEC068B70BD000067
:1051E000380100206666666666A64CC03050002016
:1051F0006666666666A64C4010B559482DED0A8B6A
:10520000B0F90610B0F908009FED569BDFED57BAD4
:10521000574C9FED588A9FED58BADFED58AA9FED85
:1052200058AADFED588A00294EDA9FED57CA0028A8
:105230002ADA91FBF0F002F074FA41EC100BFEF761
:10524000EBFF53EC192B51EC100B02F0CFFB0AD8FB
:10525000C4ED01BA84ED028A9FED4C0A84ED030A85
:105260009FED4B0A0BE09FED4B0A84ED010A9FED89
:105270004A0A84ED020A84ED03BA9FED480A84EDE0
:10528000040ABDEC0A8B10BDFBDD91FBF0F002F0CF
:1052900048FA41EC100BFEF7BFFF53EC192B51EC11
:1052A000100B02F0A3FB84ED01CA06D884ED028A3C
:1052B000C4ED03AA9FED3A0AE1E784ED02AAC4ED2A
:1052C000038A9FED380ADAE7DBDD00289FED36CA56
:1052D00022DD91FBF0F002F024FA41EC100BFEF716
:1052E0009BFF53EC192B51EC100B02F07FFB0AD8FB
:1052F0009FED2E0A84ED010AC4ED02AA84ED038A13
:10530000C4ED04BABDE79FED2A0A84ED010AC4ED9D
:10531000028A84ED03AAB2E7B3DA91FBF0F002F05F
:1053200000FA41EC100BFEF777FF53EC192B51EC10
:10533000100B02F05BFB84ED01CA08D89FED1D0A3B
:1053400084ED020A84ED038A9FED1B0A97E79FED27
:105350001B0A84ED02BA84ED030A9FED190A8EE759
:1053600030500020000000000000F03F0AD7A3BB2F
:1053700038010020A8C64BBEE17A543F355E7ABFA3
:1053800068910DBFE17A54BF0AD7A33BBE9F7A3F15
:105390004ED111BC6F1203BC7B140EBF6F1203BB46
:1053A000A69B443C99BB16BB0AD7233B52499D3A66
:1053B00099BB163B355E7A3F6F12033C295C0FBFE9
:1053C000BC74933B10EE100AF6EE000A074960EE3B
:1053D000200AA1EB600000EE100A20EE801AF7EE22
:1053E000080A41EE400A20EE800A7047DF59375F15
:1053F00006220146492000F061BA10B530216A202A
:1054000000F094FA0A20FCF779FA0D21242000F02C
:105410008DFA0A20FCF772FA0E21282000F086FA95
:105420000A20FCF76BFA8E21312000F07FFA0A2067
:10543000FCF764FA01210B2000F07BF80A20FCF74E
:105440005DFA002000F059F8102801D0012010BDAD
:1054500001210B2000F06DF80A20FCF74FFA002123
:105460000A2000F066F80A2000F047F808B1022090
:1054700010BD0A20FCF742FA00210B2000F059F879
:105480000B2000F03AF808B1032010BD0A20FCF709
:1054900035FA2421412000F04CF8412000F02DF88D
:1054A000242801D0042010BD0A20FCF727FAC021CF
:1054B000422000F03EF8422000F01FF8C02801D042
:1054C000052010BD0A20FCF719FA00212A2000F05F
:1054D0002DFA0A20FCF712FA0021342000F026FAF7
:1054E0000A20FCF70BFA062203210E2000F022F915
:1054F0006420FCF703FA002010BD10B501463220ED
:1055000000F014FA0A20FCF7F9F98021342000F0A9
:105510000DFA0A20FCF7F2F9352000F0A7F904464D
:105520000021342000F002FA0A20FCF7E7F92046B7
:1055300010BD70B50D46044600212A2000F0F6F992
:105540000220FCF7DBF92146292000F0EFF90220C8
:10555000FCF7D4F92946642000F0E8F90220FCF7B2
:10556000CDF981212A2000F0E1F9BDE870400A2040
:10557000FCF7C4B9FCF702FBFDF7EAFEFDF756FCA9
:10558000FDF704FCFDF7C6FBFDF7E2FBFDF7BEFCF3
:10559000FDF7D8FCFDF798FCFDF71AFDFBF782F844
:1055A00008B172B6FEE7FBF7C9F808B172B6FEE7BC
:1055B00000F00EF808B172B6FEE700F03BF8FFF716
:1055C0001BFE00F0EBF9FDF707FC00F0F9F9FEE730
:1055D00030B585B06420FCF791F9752000F046F9EC
:1055E000124900241422887011496846FAF78AFF8C
:1055F0004FEA0D0505EB4400417815F8140000F062
:1056000095F90120FCF77AF9641CE4B20A2CF1D375
:10561000032000F086F9022000F07EF9FFF7EDFE8E
:1056200000F0D0F805B0002030BD000038010020A7
:10563000847F000810B50E2239493B2000F03EF966
:10564000374800F10E04018849BA2180418849BADF
:105650006180818849BAA180C18849BAA181018944
:10566000628B49BA891AE1814189A28B49BA891AA8
:1056700021828089E18B40BA401A60822948FFF775
:10568000B7FE2849A4F142004C399FED271ACA6C95
:105690008264B1F85010A0F84C10D0F842100160AC
:1056A000D0F846104160D0F84A108160B4F90C007F
:1056B00000EE100AA4F14200F8EEC00A80EE810A62
:1056C000F3EE050A30EE200A80ED030AB4F90E105D
:1056D00000EE101AF8EEC00A9FED140A80EE801A50
:1056E000DFED130AC1EE201AC0ED041AB4F9101050
:1056F00001EE101AF8EEC11A81EE801AC1EE201ADE
:10570000C0ED051AB4F9121001EE101AF8EEC11A24
:1057100081EE801A81EE200A80ED060A10BD00009D
:1057200064500020840100205CEFA6436F12834187
:105730003333654270B50E460446014615462820AF
:1057400000F0F4F80220FCF7D9F80A21292000F033
:10575000EDF80220FCF7D2F80121642000F0E6F811
:105760000220FCF7CBF844F08001252000F0DEF8A1
:105770000220FCF7C3F83146262000F0D7F80220BB
:10578000FCF7BCF80321342000F0D0F80220FCF72D
:10579000B5F80321672000F0C9F80220FCF7AEF845
:1057A00081212A2000F0C2F80620FCF7A7F845F076
:1057B0008001272000F0BAF8BDE870400220FCF715
:1057C0009DB800002DE9F041274E002706F10E0498
:1057D0004FF496750E2224493B2000F06FF8318873
:1057E000A08A49BA0844A0827188E08A49BA08446C
:1057F000E082B188208B49BA084420833189608BCC
:1058000049BA084460837189A08B49BA0844A083CF
:10581000B189E08B49BA0844E0830520FCF76EF8B3
:105820007F1CAF42D6DBB4F9140090FBF5F0A082E8
:10583000B4F9160090FBF5F0E082B4F9180090FB83
:10584000F5F02083B4F91A0090FBF5F06083B4F909
:105850001C0090FBF5F0A083B4F91E0090FBF5F05E
:10586000E083BDE8F081000064500020F8B5104EE0
:105870000446002240213046FCF76CF944F08000D9
:105880000C4C3725621C20700123511E0A480095DC
:10589000FCF7C4FD621C0123511E07480095FCF76C
:1058A000BDFD012240213046FCF754F96078F8BD77
:1058B0000014024038010020E8010020F8B5134F21
:1058C00015460E460446002240213846FCF742F9B0
:1058D0000F4944F08000372408705231A1F1510281
:1058E0000870012352390B480094FCF797FD0849D2
:1058F0002B463246523107480094FCF78FFD0122B7
:1059000040213846FCF726F90020F8BD001402407B
:1059100038010020E8010020C006010E1C2000F024
:1059200005B8C006010E1B20AFF30080F8B5114F7B
:105930000E460446002240213846FCF70BF904F0DD
:105940007F000D4C3725621C20700123511E0B482F
:105950000095FCF763FD2670621C0123511E074869
:105960000095FCF75BFD012240213846FCF7F2F878
:105970000020F8BD0014024038010020E80100209A
:1059800010B5EFF3058111B16FF0050403E00024B9
:1059900008B100F02FFE204610BD0000EFF3058097
:1059A00010B16FF0050070470448016811B14FF065
:1059B000FF30704701210160002070477400002013
:1059C00010B5EFF3058010B16FF0050010BD084869
:1059D0000168012902D04FF0FF3010BD054A0021B7
:1059E00082F8141D0221016000F06CFE002010BD41
:1059F000740000200BE000E02DE9FF414FEA0103B5
:105A00004FF00005EFF30581039549BB40B38027B4
:105A1000182100244AB3166806B1344696691EB1AF
:105A20003146761E382E02D21679F60703D00020B2
:105A300004B0BDE8F081566906B1B708D2F808C0D5
:105A4000BCF1000F0DD0D5685C2D18D312693AB1A6
:105A500036B18DE806103A46214601F0CCF90390A4
:105A60000DE0D6685EB912694AB903AACDE9001201
:105A7000BAB2214601F092F9012800D003950398AB
:105A8000D6E700002DE9F041134C0F460546E668C5
:105A90002068001D00F07BFC681C07D137B121682D
:105AA000BDE8F0410D48091D00F0C0BC2068354438
:105AB000B5424560216805D2A06BBDE8F041091DE3
:105AC00000F09CBC606B091D00F098FCA06A854248
:105AD00000D2A562BDE8F08124000020C8080020A3
